{
  "address": "0xf87C606B965e86938C9eDC0F6d7e86aEA24e2AcC",
  "abi": [
    {
      "anonymous": false,
      "inputs": [
        {
          "indexed": false,
          "internalType": "address",
          "name": "token",
          "type": "address"
        },
        {
          "indexed": false,
          "internalType": "enum ITokenFactoryFacet.TokenType",
          "name": "tokenType",
          "type": "uint8"
        }
      ],
      "name": "TokenDeployed",
      "type": "event"
    },
    {
      "inputs": [
        {
          "internalType": "string",
          "name": "_name",
          "type": "string"
        },
        {
          "internalType": "string",
          "name": "_symbol",
          "type": "string"
        },
        {
          "internalType": "address",
          "name": "_to",
          "type": "address"
        },
        {
          "internalType": "uint256",
          "name": "_amount",
          "type": "uint256"
        }
      ],
      "name": "deployLimitedSupplyToken",
      "outputs": [],
      "stateMutability": "nonpayable",
      "type": "function"
    },
    {
      "inputs": [
        {
          "internalType": "string",
          "name": "_name",
          "type": "string"
        },
        {
          "internalType": "string",
          "name": "_symbol",
          "type": "string"
        },
        {
          "internalType": "string",
          "name": "_baseURI",
          "type": "string"
        },
        {
          "internalType": "address",
          "name": "_owner",
          "type": "address"
        }
      ],
      "name": "deployNonFungibleToken",
      "outputs": [],
      "stateMutability": "nonpayable",
      "type": "function"
    },
    {
      "inputs": [
        {
          "internalType": "string",
          "name": "_name",
          "type": "string"
        },
        {
          "internalType": "string",
          "name": "_symbol",
          "type": "string"
        },
        {
          "internalType": "address",
          "name": "_owner",
          "type": "address"
        }
      ],
      "name": "deployUnlimitedSupplyToken",
      "outputs": [],
      "stateMutability": "nonpayable",
      "type": "function"
    }
  ],
  "transactionHash": "0x2148d0162b2fcf2eb88d1d169426f1271feec2fc09d934283c6efb9cea19f5a5",
  "args": [],
  "numDeployments": 1,
  "solcInputHash": "5c67c6a6dd8a84dd36751173a0967b79",
  "bytecode": "0x608060405234801561001057600080fd5b50615aa1806100206000396000f3fe60806040523480156200001157600080fd5b5060043610620000465760003560e01c80630a11a432146200004b5780636d066b061462000064578063b7b8d0b3146200007b575b600080fd5b620000626200005c3660046200035c565b62000092565b005b6200006262000075366004620003d6565b6200011f565b620000626200008c36600462000458565b620001af565b6200009c62000230565b6000838383604051620000af9062000297565b620000bd939291906200056f565b604051809103906000f080158015620000da573d6000803e3d6000fd5b5090507f5c0bdd573f1186139a66b523ab6e6ce1e2deb91d74e1b98c56ecac41c7627b018160016040516200011192919062000547565b60405180910390a150505050565b6200012962000230565b6000848484846040516200013d90620002a5565b6200014c9493929190620005b1565b604051809103906000f08015801562000169573d6000803e3d6000fd5b5090507f5c0bdd573f1186139a66b523ab6e6ce1e2deb91d74e1b98c56ecac41c7627b01816000604051620001a092919062000547565b60405180910390a15050505050565b620001b962000230565b600084848484604051620001cd90620002b3565b620001dc9493929190620005f7565b604051809103906000f080158015620001f9573d6000803e3d6000fd5b5090507f5c0bdd573f1186139a66b523ab6e6ce1e2deb91d74e1b98c56ecac41c7627b01816002604051620001a092919062000547565b6200023a62000273565b600401546001600160a01b03163314620002715760405162461bcd60e51b8152600401620002689062000650565b60405180910390fd5b565b7fc8fcad8db84d3cc18b4c41d551ea0ee66dd599cde068d998e57d5e09332c131c90565b6119c8806200069383390190565b610e25806200205b83390190565b612bec8062002e8083390190565b80356001600160a01b0381168114620002d957600080fd5b919050565b600082601f830112620002ef578081fd5b813567ffffffffffffffff808211156200030557fe5b604051601f8301601f1916810160200182811182821017156200032457fe5b6040528281529250828483016020018610156200034057600080fd5b8260208601602083013760006020848301015250505092915050565b60008060006060848603121562000371578283fd5b833567ffffffffffffffff8082111562000389578485fd5b6200039787838801620002de565b94506020860135915080821115620003ad578384fd5b50620003bc86828701620002de565b925050620003cd60408501620002c1565b90509250925092565b60008060008060808587031215620003ec578081fd5b843567ffffffffffffffff8082111562000404578283fd5b6200041288838901620002de565b9550602087013591508082111562000428578283fd5b506200043787828801620002de565b9350506200044860408601620002c1565b9396929550929360600135925050565b600080600080608085870312156200046e578384fd5b843567ffffffffffffffff8082111562000486578586fd5b6200049488838901620002de565b95506020870135915080821115620004aa578485fd5b620004b888838901620002de565b94506040870135915080821115620004ce578384fd5b50620004dd87828801620002de565b925050620004ee60608601620002c1565b905092959194509250565b60008151808452815b81811015620005205760208185018101518683018201520162000502565b81811115620005325782602083870101525b50601f01601f19169290920160200192915050565b6001600160a01b038316815260408101600383106200056257fe5b8260208301529392505050565b600060608252620005846060830186620004f9565b8281036020840152620005988186620004f9565b91505060018060a01b0383166040830152949350505050565b600060808252620005c66080830187620004f9565b8281036020840152620005da8187620004f9565b6001600160a01b0395909516604084015250506060015292915050565b6000608082526200060c6080830187620004f9565b8281036020840152620006208187620004f9565b90508281036040840152620006368186620004f9565b91505060018060a01b038316606083015295945050505050565b60208082526022908201527f4c69624469616d6f6e643a204d75737420626520636f6e7472616374206f776e60408201526132b960f11b60608201526080019056fe60806040523480156200001157600080fd5b50604051620019c8380380620019c8833981810160405260608110156200003757600080fd5b81019080805160405193929190846401000000008211156200005857600080fd5b9083019060208201858111156200006e57600080fd5b82516401000000008111828201881017156200008957600080fd5b82525081516020918201929091019080838360005b83811015620000b85781810151838201526020016200009e565b50505050905090810190601f168015620000e65780820380516001836020036101000a031916815260200191505b50604052602001805160405193929190846401000000008211156200010a57600080fd5b9083019060208201858111156200012057600080fd5b82516401000000008111828201881017156200013b57600080fd5b82525081516020918201929091019080838360005b838110156200016a57818101518382015260200162000150565b50505050905090810190601f168015620001985780820380516001836020036101000a031916815260200191505b5060405260209081015185519093508592508491620001bd916003918501906200048e565b508051620001d39060049060208401906200048e565b50506005805460ff19166012179055506000620001ef62000279565b600780546001600160a01b0319166001600160a01b03831690811790915560405191925090600090600080516020620019a8833981519152908290a35062000237816200027d565b620002446000826200037c565b620002707f9f2df0fed2c77648de5860a4cc508cd0818c85b8b8a1ab4ceeef8d981c8956a6826200037c565b5050506200053a565b3390565b6200028762000279565b6007546001600160a01b03908116911614620002ea576040805162461bcd60e51b815260206004820181905260248201527f4f776e61626c653a2063616c6c6572206973206e6f7420746865206f776e6572604482015290519081900360640190fd5b6001600160a01b038116620003315760405162461bcd60e51b8152600401808060200182810382526026815260200180620019826026913960400191505060405180910390fd5b6007546040516001600160a01b03808416921690600080516020620019a883398151915290600090a3600780546001600160a01b0319166001600160a01b0392909216919091179055565b6200038882826200038c565b5050565b6000828152600660209081526040909120620003b391839062000b0962000407821b17901c565b156200038857620003c362000279565b6001600160a01b0316816001600160a01b0316837f2f8788117e7eff1d82e926ec794901d17c78024a50270940304540a733656f0d60405160405180910390a45050565b60006200041e836001600160a01b03841662000427565b90505b92915050565b600062000435838362000476565b6200046d5750815460018181018455600084815260208082209093018490558454848252828601909352604090209190915562000421565b50600062000421565b60009081526001919091016020526040902054151590565b828054600181600116156101000203166002900490600052602060002090601f016020900481019282620004c6576000855562000511565b82601f10620004e157805160ff191683800117855562000511565b8280016001018555821562000511579182015b8281111562000511578251825591602001919060010190620004f4565b506200051f92915062000523565b5090565b5b808211156200051f576000815560010162000524565b611438806200054a6000396000f3fe608060405234801561001057600080fd5b506004361061014d5760003560e01c80638da5cb5b116100c3578063a9059cbb1161007c578063a9059cbb146103fd578063ca15c87314610429578063d539139314610446578063d547741f1461044e578063dd62ed3e1461047a578063f2fde38b146104a85761014d565b80638da5cb5b1461034e5780639010d07c1461037257806391d148541461039557806395d89b41146103c1578063a217fddf146103c9578063a457c2d7146103d15761014d565b80632f2ff15d116101155780632f2ff15d1461027c578063313ce567146102aa57806336568abe146102c857806339509351146102f457806370a0823114610320578063715018a6146103465761014d565b806306fdde0314610152578063095ea7b3146101cf57806318160ddd1461020f57806323b872dd14610229578063248a9ca31461025f575b600080fd5b61015a6104ce565b6040805160208082528351818301528351919283929083019185019080838360005b8381101561019457818101518382015260200161017c565b50505050905090810190601f1680156101c15780820380516001836020036101000a031916815260200191505b509250505060405180910390f35b6101fb600480360360408110156101e557600080fd5b506001600160a01b038135169060200135610564565b604080519115158252519081900360200190f35b610217610582565b60408051918252519081900360200190f35b6101fb6004803603606081101561023f57600080fd5b506001600160a01b03813581169160208101359091169060400135610588565b6102176004803603602081101561027557600080fd5b503561060f565b6102a86004803603604081101561029257600080fd5b50803590602001356001600160a01b0316610624565b005b6102b2610690565b6040805160ff9092168252519081900360200190f35b6102a8600480360360408110156102de57600080fd5b50803590602001356001600160a01b0316610699565b6101fb6004803603604081101561030a57600080fd5b506001600160a01b0381351690602001356106fa565b6102176004803603602081101561033657600080fd5b50356001600160a01b0316610748565b6102a8610763565b610356610817565b604080516001600160a01b039092168252519081900360200190f35b6103566004803603604081101561038857600080fd5b5080359060200135610826565b6101fb600480360360408110156103ab57600080fd5b50803590602001356001600160a01b0316610845565b61015a61085d565b6102176108be565b6101fb600480360360408110156103e757600080fd5b506001600160a01b0381351690602001356108c3565b6101fb6004803603604081101561041357600080fd5b506001600160a01b03813516906020013561092b565b6102176004803603602081101561043f57600080fd5b503561093f565b610217610956565b6102a86004803603604081101561046457600080fd5b50803590602001356001600160a01b031661097a565b6102176004803603604081101561049057600080fd5b506001600160a01b03813581169160200135166109d3565b6102a8600480360360208110156104be57600080fd5b50356001600160a01b03166109fe565b60038054604080516020601f600260001961010060018816150201909516949094049384018190048102820181019092528281526060939092909183018282801561055a5780601f1061052f5761010080835404028352916020019161055a565b820191906000526020600020905b81548152906001019060200180831161053d57829003601f168201915b5050505050905090565b6000610578610571610b1e565b8484610b22565b5060015b92915050565b60025490565b6000610595848484610c0e565b610605846105a1610b1e565b6106008560405180606001604052806028815260200161133e602891396001600160a01b038a166000908152600160205260408120906105df610b1e565b6001600160a01b031681526020810191909152604001600020549190610d69565b610b22565b5060019392505050565b60009081526006602052604090206002015490565b60008281526006602052604090206002015461064790610642610b1e565b610845565b6106825760405162461bcd60e51b815260040180806020018281038252602f815260200180611271602f913960400191505060405180910390fd5b61068c8282610e00565b5050565b60055460ff1690565b6106a1610b1e565b6001600160a01b0316816001600160a01b0316146106f05760405162461bcd60e51b815260040180806020018281038252602f8152602001806113d4602f913960400191505060405180910390fd5b61068c8282610e69565b6000610578610707610b1e565b846106008560016000610718610b1e565b6001600160a01b03908116825260208083019390935260409182016000908120918c168152925290205490610ed2565b6001600160a01b031660009081526020819052604090205490565b61076b610b1e565b6007546001600160a01b039081169116146107cd576040805162461bcd60e51b815260206004820181905260248201527f4f776e61626c653a2063616c6c6572206973206e6f7420746865206f776e6572604482015290519081900360640190fd5b6007546040516000916001600160a01b0316907f8be0079c531659141344cd1fd0a4f28419497f9722a3daafe3b4186f6b6457e0908390a3600780546001600160a01b0319169055565b6007546001600160a01b031690565b600082815260066020526040812061083e9083610f2c565b9392505050565b600082815260066020526040812061083e9083610f38565b60048054604080516020601f600260001961010060018816150201909516949094049384018190048102820181019092528281526060939092909183018282801561055a5780601f1061052f5761010080835404028352916020019161055a565b600081565b60006105786108d0610b1e565b84610600856040518060600160405280602581526020016113af60259139600160006108fa610b1e565b6001600160a01b03908116825260208083019390935260409182016000908120918d16815292529020549190610d69565b6000610578610938610b1e565b8484610c0e565b600081815260066020526040812061057c90610f4d565b7f9f2df0fed2c77648de5860a4cc508cd0818c85b8b8a1ab4ceeef8d981c8956a681565b60008281526006602052604090206002015461099890610642610b1e565b6106f05760405162461bcd60e51b815260040180806020018281038252603081526020018061130e6030913960400191505060405180910390fd5b6001600160a01b03918216600090815260016020908152604080832093909416825291909152205490565b610a06610b1e565b6007546001600160a01b03908116911614610a68576040805162461bcd60e51b815260206004820181905260248201527f4f776e61626c653a2063616c6c6572206973206e6f7420746865206f776e6572604482015290519081900360640190fd5b6001600160a01b038116610aad5760405162461bcd60e51b81526004018080602001828103825260268152602001806112a06026913960400191505060405180910390fd5b6007546040516001600160a01b038084169216907f8be0079c531659141344cd1fd0a4f28419497f9722a3daafe3b4186f6b6457e090600090a3600780546001600160a01b0319166001600160a01b0392909216919091179055565b600061083e836001600160a01b038416610f58565b3390565b6001600160a01b038316610b675760405162461bcd60e51b815260040180806020018281038252602481526020018061138b6024913960400191505060405180910390fd5b6001600160a01b038216610bac5760405162461bcd60e51b81526004018080602001828103825260228152602001806112c66022913960400191505060405180910390fd5b6001600160a01b03808416600081815260016020908152604080832094871680845294825291829020859055815185815291517f8c5be1e5ebec7d5bd14f71427d1e84f3dd0314c0f7b2291e5b200ac8c7c3b9259281900390910190a3505050565b6001600160a01b038316610c535760405162461bcd60e51b81526004018080602001828103825260258152602001806113666025913960400191505060405180910390fd5b6001600160a01b038216610c985760405162461bcd60e51b815260040180806020018281038252602381526020018061124e6023913960400191505060405180910390fd5b610ca3838383610fa2565b610ce0816040518060600160405280602681526020016112e8602691396001600160a01b0386166000908152602081905260409020549190610d69565b6001600160a01b038085166000908152602081905260408082209390935590841681522054610d0f9082610ed2565b6001600160a01b038084166000818152602081815260409182902094909455805185815290519193928716927fddf252ad1be2c89b69c2b068fc378daa952ba7f163c4a11628f55a4df523b3ef92918290030190a3505050565b60008184841115610df85760405162461bcd60e51b81526004018080602001828103825283818151815260200191508051906020019080838360005b83811015610dbd578181015183820152602001610da5565b50505050905090810190601f168015610dea5780820380516001836020036101000a031916815260200191505b509250505060405180910390fd5b505050900390565b6000828152600660205260409020610e189082610b09565b1561068c57610e25610b1e565b6001600160a01b0316816001600160a01b0316837f2f8788117e7eff1d82e926ec794901d17c78024a50270940304540a733656f0d60405160405180910390a45050565b6000828152600660205260409020610e819082610fe0565b1561068c57610e8e610b1e565b6001600160a01b0316816001600160a01b0316837ff6391f5c32d9c69d2a47ea670b442974b53935d1edc7fd64eb21e047a839171b60405160405180910390a45050565b60008282018381101561083e576040805162461bcd60e51b815260206004820152601b60248201527f536166654d6174683a206164646974696f6e206f766572666c6f770000000000604482015290519081900360640190fd5b600061083e8383610ff5565b600061083e836001600160a01b038416611059565b600061057c82611071565b6000610f648383611059565b610f9a5750815460018181018455600084815260208082209093018490558454848252828601909352604090209190915561057c565b50600061057c565b610fcc7f9f2df0fed2c77648de5860a4cc508cd0818c85b8b8a1ab4ceeef8d981c8956a684610845565b15610fdb57610fdb8382611075565b505050565b600061083e836001600160a01b038416611165565b815460009082106110375760405162461bcd60e51b815260040180806020018281038252602281526020018061122c6022913960400191505060405180910390fd5b82600001828154811061104657fe5b9060005260206000200154905092915050565b60009081526001919091016020526040902054151590565b5490565b6001600160a01b0382166110d0576040805162461bcd60e51b815260206004820152601f60248201527f45524332303a206d696e7420746f20746865207a65726f206164647265737300604482015290519081900360640190fd5b6110dc60008383610fa2565b6002546110e99082610ed2565b6002556001600160a01b03821660009081526020819052604090205461110f9082610ed2565b6001600160a01b0383166000818152602081815260408083209490945583518581529351929391927fddf252ad1be2c89b69c2b068fc378daa952ba7f163c4a11628f55a4df523b3ef9281900390910190a35050565b60008181526001830160205260408120548015611221578354600019808301919081019060009087908390811061119857fe5b90600052602060002001549050808760000184815481106111b557fe5b6000918252602080832090910192909255828152600189810190925260409020908401905586548790806111e557fe5b6001900381819060005260206000200160009055905586600101600087815260200190815260200160002060009055600194505050505061057c565b600091505061057c56fe456e756d657261626c655365743a20696e646578206f7574206f6620626f756e647345524332303a207472616e7366657220746f20746865207a65726f2061646472657373416363657373436f6e74726f6c3a2073656e646572206d75737420626520616e2061646d696e20746f206772616e744f776e61626c653a206e6577206f776e657220697320746865207a65726f206164647265737345524332303a20617070726f766520746f20746865207a65726f206164647265737345524332303a207472616e7366657220616d6f756e7420657863656564732062616c616e6365416363657373436f6e74726f6c3a2073656e646572206d75737420626520616e2061646d696e20746f207265766f6b6545524332303a207472616e7366657220616d6f756e74206578636565647320616c6c6f77616e636545524332303a207472616e736665722066726f6d20746865207a65726f206164647265737345524332303a20617070726f76652066726f6d20746865207a65726f206164647265737345524332303a2064656372656173656420616c6c6f77616e63652062656c6f77207a65726f416363657373436f6e74726f6c3a2063616e206f6e6c792072656e6f756e636520726f6c657320666f722073656c66a26469706673582212205c653312244b8b8b09ade33ad7b8b9aae647d5fd1ee211994c2f0d3ad83a18a264736f6c634300070400334f776e61626c653a206e6577206f776e657220697320746865207a65726f20616464726573738be0079c531659141344cd1fd0a4f28419497f9722a3daafe3b4186f6b6457e060806040523480156200001157600080fd5b5060405162000e2538038062000e25833981810160405260808110156200003757600080fd5b81019080805160405193929190846401000000008211156200005857600080fd5b9083019060208201858111156200006e57600080fd5b82516401000000008111828201881017156200008957600080fd5b82525081516020918201929091019080838360005b83811015620000b85781810151838201526020016200009e565b50505050905090810190601f168015620000e65780820380516001836020036101000a031916815260200191505b50604052602001805160405193929190846401000000008211156200010a57600080fd5b9083019060208201858111156200012057600080fd5b82516401000000008111828201881017156200013b57600080fd5b82525081516020918201929091019080838360005b838110156200016a57818101518382015260200162000150565b50505050905090810190601f168015620001985780820380516001836020036101000a031916815260200191505b50604090815260208281015192909101518651929450925085918591620001c59160039185019062000377565b508051620001db90600490602084019062000377565b50506005805460ff1916601217905550620001f7828262000201565b5050505062000423565b6001600160a01b0382166200025d576040805162461bcd60e51b815260206004820152601f60248201527f45524332303a206d696e7420746f20746865207a65726f206164647265737300604482015290519081900360640190fd5b6200026b6000838362000310565b62000287816002546200031560201b620005731790919060201c565b6002556001600160a01b03821660009081526020818152604090912054620002ba9183906200057362000315821b17901c565b6001600160a01b0383166000818152602081815260408083209490945583518581529351929391927fddf252ad1be2c89b69c2b068fc378daa952ba7f163c4a11628f55a4df523b3ef9281900390910190a35050565b505050565b60008282018381101562000370576040805162461bcd60e51b815260206004820152601b60248201527f536166654d6174683a206164646974696f6e206f766572666c6f770000000000604482015290519081900360640190fd5b9392505050565b828054600181600116156101000203166002900490600052602060002090601f016020900481019282620003af5760008555620003fa565b82601f10620003ca57805160ff1916838001178555620003fa565b82800160010185558215620003fa579182015b82811115620003fa578251825591602001919060010190620003dd565b50620004089291506200040c565b5090565b5b808211156200040857600081556001016200040d565b6109f280620004336000396000f3fe608060405234801561001057600080fd5b50600436106100a95760003560e01c8063395093511161007157806339509351146101d957806370a082311461020557806395d89b411461022b578063a457c2d714610233578063a9059cbb1461025f578063dd62ed3e1461028b576100a9565b806306fdde03146100ae578063095ea7b31461012b57806318160ddd1461016b57806323b872dd14610185578063313ce567146101bb575b600080fd5b6100b66102b9565b6040805160208082528351818301528351919283929083019185019080838360005b838110156100f05781810151838201526020016100d8565b50505050905090810190601f16801561011d5780820380516001836020036101000a031916815260200191505b509250505060405180910390f35b6101576004803603604081101561014157600080fd5b506001600160a01b03813516906020013561034f565b604080519115158252519081900360200190f35b61017361036c565b60408051918252519081900360200190f35b6101576004803603606081101561019b57600080fd5b506001600160a01b03813581169160208101359091169060400135610372565b6101c36103f9565b6040805160ff9092168252519081900360200190f35b610157600480360360408110156101ef57600080fd5b506001600160a01b038135169060200135610402565b6101736004803603602081101561021b57600080fd5b50356001600160a01b0316610450565b6100b661046b565b6101576004803603604081101561024957600080fd5b506001600160a01b0381351690602001356104cc565b6101576004803603604081101561027557600080fd5b506001600160a01b038135169060200135610534565b610173600480360360408110156102a157600080fd5b506001600160a01b0381358116916020013516610548565b60038054604080516020601f60026000196101006001881615020190951694909404938401819004810282018101909252828152606093909290918301828280156103455780601f1061031a57610100808354040283529160200191610345565b820191906000526020600020905b81548152906001019060200180831161032857829003601f168201915b5050505050905090565b600061036361035c6105d4565b84846105d8565b50600192915050565b60025490565b600061037f8484846106c4565b6103ef8461038b6105d4565b6103ea85604051806060016040528060288152602001610927602891396001600160a01b038a166000908152600160205260408120906103c96105d4565b6001600160a01b03168152602081019190915260400160002054919061081f565b6105d8565b5060019392505050565b60055460ff1690565b600061036361040f6105d4565b846103ea85600160006104206105d4565b6001600160a01b03908116825260208083019390935260409182016000908120918c168152925290205490610573565b6001600160a01b031660009081526020819052604090205490565b60048054604080516020601f60026000196101006001881615020190951694909404938401819004810282018101909252828152606093909290918301828280156103455780601f1061031a57610100808354040283529160200191610345565b60006103636104d96105d4565b846103ea8560405180606001604052806025815260200161099860259139600160006105036105d4565b6001600160a01b03908116825260208083019390935260409182016000908120918d1681529252902054919061081f565b60006103636105416105d4565b84846106c4565b6001600160a01b03918216600090815260016020908152604080832093909416825291909152205490565b6000828201838110156105cd576040805162461bcd60e51b815260206004820152601b60248201527f536166654d6174683a206164646974696f6e206f766572666c6f770000000000604482015290519081900360640190fd5b9392505050565b3390565b6001600160a01b03831661061d5760405162461bcd60e51b81526004018080602001828103825260248152602001806109746024913960400191505060405180910390fd5b6001600160a01b0382166106625760405162461bcd60e51b81526004018080602001828103825260228152602001806108df6022913960400191505060405180910390fd5b6001600160a01b03808416600081815260016020908152604080832094871680845294825291829020859055815185815291517f8c5be1e5ebec7d5bd14f71427d1e84f3dd0314c0f7b2291e5b200ac8c7c3b9259281900390910190a3505050565b6001600160a01b0383166107095760405162461bcd60e51b815260040180806020018281038252602581526020018061094f6025913960400191505060405180910390fd5b6001600160a01b03821661074e5760405162461bcd60e51b81526004018080602001828103825260238152602001806108bc6023913960400191505060405180910390fd5b6107598383836108b6565b61079681604051806060016040528060268152602001610901602691396001600160a01b038616600090815260208190526040902054919061081f565b6001600160a01b0380851660009081526020819052604080822093909355908416815220546107c59082610573565b6001600160a01b038084166000818152602081815260409182902094909455805185815290519193928716927fddf252ad1be2c89b69c2b068fc378daa952ba7f163c4a11628f55a4df523b3ef92918290030190a3505050565b600081848411156108ae5760405162461bcd60e51b81526004018080602001828103825283818151815260200191508051906020019080838360005b8381101561087357818101518382015260200161085b565b50505050905090810190601f1680156108a05780820380516001836020036101000a031916815260200191505b509250505060405180910390fd5b505050900390565b50505056fe45524332303a207472616e7366657220746f20746865207a65726f206164647265737345524332303a20617070726f766520746f20746865207a65726f206164647265737345524332303a207472616e7366657220616d6f756e7420657863656564732062616c616e636545524332303a207472616e7366657220616d6f756e74206578636565647320616c6c6f77616e636545524332303a207472616e736665722066726f6d20746865207a65726f206164647265737345524332303a20617070726f76652066726f6d20746865207a65726f206164647265737345524332303a2064656372656173656420616c6c6f77616e63652062656c6f77207a65726fa2646970667358221220298255d89d7b5f9901bfa3aa519a623cf9f40d10b963931ef92dcd1b3cc6300d64736f6c6343000704003360806040523480156200001157600080fd5b5060405162002bec38038062002bec833981810160405260808110156200003757600080fd5b81019080805160405193929190846401000000008211156200005857600080fd5b9083019060208201858111156200006e57600080fd5b82516401000000008111828201881017156200008957600080fd5b82525081516020918201929091019080838360005b83811015620000b85781810151838201526020016200009e565b50505050905090810190601f168015620000e65780820380516001836020036101000a031916815260200191505b50604052602001805160405193929190846401000000008211156200010a57600080fd5b9083019060208201858111156200012057600080fd5b82516401000000008111828201881017156200013b57600080fd5b82525081516020918201929091019080838360005b838110156200016a57818101518382015260200162000150565b50505050905090810190601f168015620001985780820380516001836020036101000a031916815260200191505b5060405260200180516040519392919084640100000000821115620001bc57600080fd5b908301906020820185811115620001d257600080fd5b8251640100000000811182820188101715620001ed57600080fd5b82525081516020918201929091019080838360005b838110156200021c57818101518382015260200162000202565b50505050905090810190601f1680156200024a5780820380516001836020036101000a031916815260200191505b50604052602001519150849050836200026a6301ffc9a760e01b62000371565b81516200027f90600690602085019062000620565b5080516200029590600790602084019062000620565b50620002a86380ac58cd60e01b62000371565b620002ba635b5e139f60e01b62000371565b620002cc63780e9d6360e01b62000371565b5060009050620002db620003f6565b600b80546001600160a01b0319166001600160a01b0383169081179091556040519192509060009060008051602062002bcc833981519152908290a3506200032381620003fa565b62000330600082620004f9565b6200035c7f9f2df0fed2c77648de5860a4cc508cd0818c85b8b8a1ab4ceeef8d981c8956a682620004f9565b620003678262000509565b50505050620006cc565b6001600160e01b03198082161415620003d1576040805162461bcd60e51b815260206004820152601c60248201527f4552433136353a20696e76616c696420696e7465726661636520696400000000604482015290519081900360640190fd5b6001600160e01b0319166000908152602081905260409020805460ff19166001179055565b3390565b62000404620003f6565b600b546001600160a01b0390811691161462000467576040805162461bcd60e51b815260206004820181905260248201527f4f776e61626c653a2063616c6c6572206973206e6f7420746865206f776e6572604482015290519081900360640190fd5b6001600160a01b038116620004ae5760405162461bcd60e51b815260040180806020018281038252602681526020018062002ba66026913960400191505060405180910390fd5b600b546040516001600160a01b0380841692169060008051602062002bcc83398151915290600090a3600b80546001600160a01b0319166001600160a01b0392909216919091179055565b6200050582826200051e565b5050565b80516200050590600990602084019062000620565b6000828152600a6020908152604090912062000545918390620013bb62000599821b17901c565b15620005055762000555620003f6565b6001600160a01b0316816001600160a01b0316837f2f8788117e7eff1d82e926ec794901d17c78024a50270940304540a733656f0d60405160405180910390a45050565b6000620005b0836001600160a01b038416620005b9565b90505b92915050565b6000620005c7838362000608565b620005ff57508154600181810184556000848152602080822090930184905584548482528286019093526040902091909155620005b3565b506000620005b3565b60009081526001919091016020526040902054151590565b828054600181600116156101000203166002900490600052602060002090601f016020900481019282620006585760008555620006a3565b82601f106200067357805160ff1916838001178555620006a3565b82800160010185558215620006a3579182015b82811115620006a357825182559160200191906001019062000686565b50620006b1929150620006b5565b5090565b5b80821115620006b15760008155600101620006b6565b6124ca80620006dc6000396000f3fe608060405234801561001057600080fd5b50600436106101da5760003560e01c8063715018a611610104578063b88d4fde116100a2578063d539139311610071578063d5391393146106e0578063d547741f146106e8578063e985e9c514610714578063f2fde38b14610742576101da565b8063b88d4fde1461052a578063c87b56dd146105f0578063ca15c8731461060d578063d0def5211461062a576101da565b806391d14854116100de57806391d14854146104c057806395d89b41146104ec578063a217fddf146104f4578063a22cb465146104fc576101da565b8063715018a61461048d5780638da5cb5b146104955780639010d07c1461049d576101da565b80632f2ff15d1161017c5780634f6ccce71161014b5780634f6ccce7146104255780636352211e146104425780636c0360eb1461045f57806370a0823114610467576101da565b80632f2ff15d1461036b5780632f745c591461039757806336568abe146103c357806342842e0e146103ef576101da565b8063095ea7b3116101b8578063095ea7b3146102d057806318160ddd146102fe57806323b872dd14610318578063248a9ca31461034e576101da565b806301ffc9a7146101df57806306fdde031461021a578063081812fc14610297575b600080fd5b610206600480360360208110156101f557600080fd5b50356001600160e01b031916610768565b604080519115158252519081900360200190f35b61022261078b565b6040805160208082528351818301528351919283929083019185019080838360005b8381101561025c578181015183820152602001610244565b50505050905090810190601f1680156102895780820380516001836020036101000a031916815260200191505b509250505060405180910390f35b6102b4600480360360208110156102ad57600080fd5b5035610821565b604080516001600160a01b039092168252519081900360200190f35b6102fc600480360360408110156102e657600080fd5b506001600160a01b038135169060200135610883565b005b61030661095e565b60408051918252519081900360200190f35b6102fc6004803603606081101561032e57600080fd5b506001600160a01b0381358116916020810135909116906040013561096f565b6103066004803603602081101561036457600080fd5b50356109c6565b6102fc6004803603604081101561038157600080fd5b50803590602001356001600160a01b03166109db565b610306600480360360408110156103ad57600080fd5b506001600160a01b038135169060200135610a47565b6102fc600480360360408110156103d957600080fd5b50803590602001356001600160a01b0316610a72565b6102fc6004803603606081101561040557600080fd5b506001600160a01b03813581169160208101359091169060400135610ad3565b6103066004803603602081101561043b57600080fd5b5035610aee565b6102b46004803603602081101561045857600080fd5b5035610b04565b610222610b2c565b6103066004803603602081101561047d57600080fd5b50356001600160a01b0316610b8d565b6102fc610bf5565b6102b4610ca9565b6102b4600480360360408110156104b357600080fd5b5080359060200135610cb8565b610206600480360360408110156104d657600080fd5b50803590602001356001600160a01b0316610cd0565b610222610ce8565b610306610d49565b6102fc6004803603604081101561051257600080fd5b506001600160a01b0381351690602001351515610d4e565b6102fc6004803603608081101561054057600080fd5b6001600160a01b0382358116926020810135909116916040820135919081019060808101606082013564010000000081111561057b57600080fd5b82018360208201111561058d57600080fd5b803590602001918460018302840111640100000000831117156105af57600080fd5b91908080601f016020809104026020016040519081016040528093929190818152602001838380828437600092019190915250929550610e53945050505050565b6102226004803603602081101561060657600080fd5b5035610eb1565b6103066004803603602081101561062357600080fd5b5035611158565b6103066004803603604081101561064057600080fd5b6001600160a01b03823516919081019060408101602082013564010000000081111561066b57600080fd5b82018360208201111561067d57600080fd5b8035906020019184600183028401116401000000008311171561069f57600080fd5b91908080601f01602080910402602001604051908101604052809392919081815260200183838082843760009201919091525092955061116f945050505050565b610306611205565b6102fc600480360360408110156106fe57600080fd5b50803590602001356001600160a01b0316611229565b6102066004803603604081101561072a57600080fd5b506001600160a01b0381358116916020013516611282565b6102fc6004803603602081101561075857600080fd5b50356001600160a01b03166112b0565b6001600160e01b0319811660009081526020819052604090205460ff165b919050565b60068054604080516020601f60026000196101006001881615020190951694909404938401819004810282018101909252828152606093909290918301828280156108175780601f106107ec57610100808354040283529160200191610817565b820191906000526020600020905b8154815290600101906020018083116107fa57829003601f168201915b5050505050905090565b600061082c826113d0565b6108675760405162461bcd60e51b815260040180806020018281038252602c815260200180612364602c913960400191505060405180910390fd5b506000908152600460205260409020546001600160a01b031690565b600061088e82610b04565b9050806001600160a01b0316836001600160a01b031614156108e15760405162461bcd60e51b81526004018080602001828103825260218152602001806124146021913960400191505060405180910390fd5b806001600160a01b03166108f36113dd565b6001600160a01b0316148061091457506109148161090f6113dd565b611282565b61094f5760405162461bcd60e51b81526004018080602001828103825260388152602001806122b76038913960400191505060405180910390fd5b61095983836113e1565b505050565b600061096a600261144f565b905090565b61098061097a6113dd565b8261145a565b6109bb5760405162461bcd60e51b81526004018080602001828103825260318152602001806124356031913960400191505060405180910390fd5b6109598383836114fe565b6000908152600a602052604090206002015490565b6000828152600a60205260409020600201546109fe906109f96113dd565b610cd0565b610a395760405162461bcd60e51b815260040180806020018281038252602f8152602001806121b0602f913960400191505060405180910390fd5b610a43828261164a565b5050565b6001600160a01b0382166000908152600160205260408120610a6990836116b3565b90505b92915050565b610a7a6113dd565b6001600160a01b0316816001600160a01b031614610ac95760405162461bcd60e51b815260040180806020018281038252602f815260200180612466602f913960400191505060405180910390fd5b610a4382826116bf565b61095983838360405180602001604052806000815250610e53565b600080610afc600284611728565b509392505050565b6000610a6c826040518060600160405280602981526020016123196029913960029190611744565b60098054604080516020601f60026000196101006001881615020190951694909404938401819004810282018101909252828152606093909290918301828280156108175780601f106107ec57610100808354040283529160200191610817565b60006001600160a01b038216610bd45760405162461bcd60e51b815260040180806020018281038252602a8152602001806122ef602a913960400191505060405180910390fd5b6001600160a01b0382166000908152600160205260409020610a6c9061144f565b610bfd6113dd565b600b546001600160a01b03908116911614610c5f576040805162461bcd60e51b815260206004820181905260248201527f4f776e61626c653a2063616c6c6572206973206e6f7420746865206f776e6572604482015290519081900360640190fd5b600b546040516000916001600160a01b0316907f8be0079c531659141344cd1fd0a4f28419497f9722a3daafe3b4186f6b6457e0908390a3600b80546001600160a01b0319169055565b600b546001600160a01b031690565b6000828152600a60205260408120610a6990836116b3565b6000828152600a60205260408120610a69908361175b565b60078054604080516020601f60026000196101006001881615020190951694909404938401819004810282018101909252828152606093909290918301828280156108175780601f106107ec57610100808354040283529160200191610817565b600081565b610d566113dd565b6001600160a01b0316826001600160a01b03161415610dbc576040805162461bcd60e51b815260206004820152601960248201527f4552433732313a20617070726f766520746f2063616c6c657200000000000000604482015290519081900360640190fd5b8060056000610dc96113dd565b6001600160a01b03908116825260208083019390935260409182016000908120918716808252919093529120805460ff191692151592909217909155610e0d6113dd565b6001600160a01b03167f17307eab39ab6107e8899845ad3d59bd9653f200f220920489ca2b5937696c318360405180821515815260200191505060405180910390a35050565b610e64610e5e6113dd565b8361145a565b610e9f5760405162461bcd60e51b81526004018080602001828103825260318152602001806124356031913960400191505060405180910390fd5b610eab84848484611770565b50505050565b6060610ebc826113d0565b610ef75760405162461bcd60e51b815260040180806020018281038252602f8152602001806123e5602f913960400191505060405180910390fd5b60008281526008602090815260409182902080548351601f6002600019610100600186161502019093169290920491820184900484028101840190945280845260609392830182828015610f8c5780601f10610f6157610100808354040283529160200191610f8c565b820191906000526020600020905b815481529060010190602001808311610f6f57829003601f168201915b505060095493945050505060026000196101006001841615020190911604610fb5579050610786565b80511561108657600981604051602001808380546001816001161561010002031660029004801561101d5780601f10610ffb57610100808354040283529182019161101d565b820191906000526020600020905b815481529060010190602001808311611009575b5050825160208401908083835b602083106110495780518252601f19909201916020918201910161102a565b6001836020036101000a03801982511681845116808217855250505050505090500192505050604051602081830303815290604052915050610786565b6009611091846117c2565b60405160200180838054600181600116156101000203166002900480156110ef5780601f106110cd5761010080835404028352918201916110ef565b820191906000526020600020905b8154815290600101906020018083116110db575b5050825160208401908083835b6020831061111b5780518252601f1990920191602091820191016110fc565b6001836020036101000a03801982511681845116808217855250505050505090500192505050604051602081830303815290604052915050919050565b6000818152600a60205260408120610a6c9061144f565b600061119b7f9f2df0fed2c77648de5860a4cc508cd0818c85b8b8a1ab4ceeef8d981c8956a633610cd0565b6111d9576040805162461bcd60e51b815260206004820152600a6024820152692727aa2fa6a4a72a22a960b11b604482015290519081900360640190fd5b6111e3600c61189d565b60006111ef600c6118a6565b90506111fb84826118aa565b610a6981846119d8565b7f9f2df0fed2c77648de5860a4cc508cd0818c85b8b8a1ab4ceeef8d981c8956a681565b6000828152600a6020526040902060020154611247906109f96113dd565b610ac95760405162461bcd60e51b81526004018080602001828103825260308152602001806122876030913960400191505060405180910390fd5b6001600160a01b03918216600090815260056020908152604080832093909416825291909152205460ff1690565b6112b86113dd565b600b546001600160a01b0390811691161461131a576040805162461bcd60e51b815260206004820181905260248201527f4f776e61626c653a2063616c6c6572206973206e6f7420746865206f776e6572604482015290519081900360640190fd5b6001600160a01b03811661135f5760405162461bcd60e51b81526004018080602001828103825260268152602001806122116026913960400191505060405180910390fd5b600b546040516001600160a01b038084169216907f8be0079c531659141344cd1fd0a4f28419497f9722a3daafe3b4186f6b6457e090600090a3600b80546001600160a01b0319166001600160a01b0392909216919091179055565b6000610a69836001600160a01b038416611a3b565b6000610a6c600283611a85565b3390565b600081815260046020526040902080546001600160a01b0319166001600160a01b038416908117909155819061141682610b04565b6001600160a01b03167f8c5be1e5ebec7d5bd14f71427d1e84f3dd0314c0f7b2291e5b200ac8c7c3b92560405160405180910390a45050565b6000610a6c826118a6565b6000611465826113d0565b6114a05760405162461bcd60e51b815260040180806020018281038252602c81526020018061225b602c913960400191505060405180910390fd5b60006114ab83610b04565b9050806001600160a01b0316846001600160a01b031614806114e65750836001600160a01b03166114db84610821565b6001600160a01b0316145b806114f657506114f68185611282565b949350505050565b826001600160a01b031661151182610b04565b6001600160a01b0316146115565760405162461bcd60e51b81526004018080602001828103825260298152602001806123bc6029913960400191505060405180910390fd5b6001600160a01b03821661159b5760405162461bcd60e51b81526004018080602001828103825260248152602001806122376024913960400191505060405180910390fd5b6115a6838383610959565b6115b16000826113e1565b6001600160a01b03831660009081526001602052604090206115d39082611a91565b506001600160a01b03821660009081526001602052604090206115f69082611a9d565b5061160360028284611aa9565b5080826001600160a01b0316846001600160a01b03167fddf252ad1be2c89b69c2b068fc378daa952ba7f163c4a11628f55a4df523b3ef60405160405180910390a4505050565b6000828152600a6020526040902061166290826113bb565b15610a435761166f6113dd565b6001600160a01b0316816001600160a01b0316837f2f8788117e7eff1d82e926ec794901d17c78024a50270940304540a733656f0d60405160405180910390a45050565b6000610a698383611abf565b6000828152600a602052604090206116d79082611b23565b15610a43576116e46113dd565b6001600160a01b0316816001600160a01b0316837ff6391f5c32d9c69d2a47ea670b442974b53935d1edc7fd64eb21e047a839171b60405160405180910390a45050565b60008080806117378686611b38565b9097909650945050505050565b6000611751848484611bb3565b90505b9392505050565b6000610a69836001600160a01b038416611c7d565b61177b8484846114fe565b61178784848484611c95565b610eab5760405162461bcd60e51b81526004018080602001828103825260328152602001806121df6032913960400191505060405180910390fd5b6060816117e757506040805180820190915260018152600360fc1b6020820152610786565b8160005b81156117ff57600101600a820491506117eb565b60608167ffffffffffffffff8111801561181857600080fd5b506040519080825280601f01601f191660200182016040528015611843576020820181803683370190505b50859350905060001982015b831561189457600a840660300160f81b8282806001900393508151811061187257fe5b60200101906001600160f81b031916908160001a905350600a8404935061184f565b50949350505050565b80546001019055565b5490565b6001600160a01b038216611905576040805162461bcd60e51b815260206004820181905260248201527f4552433732313a206d696e7420746f20746865207a65726f2061646472657373604482015290519081900360640190fd5b61190e816113d0565b15611960576040805162461bcd60e51b815260206004820152601c60248201527f4552433732313a20746f6b656e20616c7265616479206d696e74656400000000604482015290519081900360640190fd5b61196c60008383610959565b6001600160a01b038216600090815260016020526040902061198e9082611a9d565b5061199b60028284611aa9565b5060405181906001600160a01b038416906000907fddf252ad1be2c89b69c2b068fc378daa952ba7f163c4a11628f55a4df523b3ef908290a45050565b6119e1826113d0565b611a1c5760405162461bcd60e51b815260040180806020018281038252602c815260200180612390602c913960400191505060405180910390fd5b60008281526008602090815260409091208251610959928401906120ec565b6000611a478383611c7d565b611a7d57508154600181810184556000848152602080822090930184905584548482528286019093526040902091909155610a6c565b506000610a6c565b6000610a698383611c7d565b6000610a698383611dfd565b6000610a698383611a3b565b600061175184846001600160a01b038516611ec3565b81546000908210611b015760405162461bcd60e51b815260040180806020018281038252602281526020018061218e6022913960400191505060405180910390fd5b826000018281548110611b1057fe5b9060005260206000200154905092915050565b6000610a69836001600160a01b038416611dfd565b815460009081908310611b7c5760405162461bcd60e51b81526004018080602001828103825260228152602001806123426022913960400191505060405180910390fd5b6000846000018481548110611b8d57fe5b906000526020600020906002020190508060000154816001015492509250509250929050565b60008281526001840160205260408120548281611c4e5760405162461bcd60e51b81526004018080602001828103825283818151815260200191508051906020019080838360005b83811015611c13578181015183820152602001611bfb565b50505050905090810190601f168015611c405780820380516001836020036101000a031916815260200191505b509250505060405180910390fd5b50846000016001820381548110611c6157fe5b9060005260206000209060020201600101549150509392505050565b60009081526001919091016020526040902054151590565b6000611ca9846001600160a01b0316611f5a565b611cb5575060016114f6565b6060611dc3630a85bd0160e11b611cca6113dd565b88878760405160240180856001600160a01b03168152602001846001600160a01b0316815260200183815260200180602001828103825283818151815260200191508051906020019080838360005b83811015611d31578181015183820152602001611d19565b50505050905090810190601f168015611d5e5780820380516001836020036101000a031916815260200191505b5095505050505050604051602081830303815290604052906001600160e01b0319166020820180516001600160e01b0383818316178352505050506040518060600160405280603281526020016121df603291396001600160a01b0388169190611f60565b90506000818060200190516020811015611ddc57600080fd5b50516001600160e01b031916630a85bd0160e11b1492505050949350505050565b60008181526001830160205260408120548015611eb95783546000198083019190810190600090879083908110611e3057fe5b9060005260206000200154905080876000018481548110611e4d57fe5b600091825260208083209091019290925582815260018981019092526040902090840190558654879080611e7d57fe5b60019003818190600052602060002001600090559055866001016000878152602001908152602001600020600090556001945050505050610a6c565b6000915050610a6c565b600082815260018401602052604081205480611f28575050604080518082018252838152602080820184815286546001818101895560008981528481209551600290930290950191825591519082015586548684528188019092529290912055611754565b82856000016001830381548110611f3b57fe5b9060005260206000209060020201600101819055506000915050611754565b3b151590565b6060611751848460008585611f7485611f5a565b611fc5576040805162461bcd60e51b815260206004820152601d60248201527f416464726573733a2063616c6c20746f206e6f6e2d636f6e7472616374000000604482015290519081900360640190fd5b60006060866001600160a01b031685876040518082805190602001908083835b602083106120045780518252601f199092019160209182019101611fe5565b6001836020036101000a03801982511681845116808217855250505050505090500191505060006040518083038185875af1925050503d8060008114612066576040519150601f19603f3d011682016040523d82523d6000602084013e61206b565b606091505b509150915061207b828286612086565b979650505050505050565b60608315612095575081611754565b8251156120a55782518084602001fd5b60405162461bcd60e51b8152602060048201818152845160248401528451859391928392604401919085019080838360008315611c13578181015183820152602001611bfb565b828054600181600116156101000203166002900490600052602060002090601f0160209004810192826121225760008555612168565b82601f1061213b57805160ff1916838001178555612168565b82800160010185558215612168579182015b8281111561216857825182559160200191906001019061214d565b50612174929150612178565b5090565b5b80821115612174576000815560010161217956fe456e756d657261626c655365743a20696e646578206f7574206f6620626f756e6473416363657373436f6e74726f6c3a2073656e646572206d75737420626520616e2061646d696e20746f206772616e744552433732313a207472616e7366657220746f206e6f6e20455243373231526563656976657220696d706c656d656e7465724f776e61626c653a206e6577206f776e657220697320746865207a65726f20616464726573734552433732313a207472616e7366657220746f20746865207a65726f20616464726573734552433732313a206f70657261746f7220717565727920666f72206e6f6e6578697374656e7420746f6b656e416363657373436f6e74726f6c3a2073656e646572206d75737420626520616e2061646d696e20746f207265766f6b654552433732313a20617070726f76652063616c6c6572206973206e6f74206f776e6572206e6f7220617070726f76656420666f7220616c6c4552433732313a2062616c616e636520717565727920666f7220746865207a65726f20616464726573734552433732313a206f776e657220717565727920666f72206e6f6e6578697374656e7420746f6b656e456e756d657261626c654d61703a20696e646578206f7574206f6620626f756e64734552433732313a20617070726f76656420717565727920666f72206e6f6e6578697374656e7420746f6b656e4552433732314d657461646174613a2055524920736574206f66206e6f6e6578697374656e7420746f6b656e4552433732313a207472616e73666572206f6620746f6b656e2074686174206973206e6f74206f776e4552433732314d657461646174613a2055524920717565727920666f72206e6f6e6578697374656e7420746f6b656e4552433732313a20617070726f76616c20746f2063757272656e74206f776e65724552433732313a207472616e736665722063616c6c6572206973206e6f74206f776e6572206e6f7220617070726f766564416363657373436f6e74726f6c3a2063616e206f6e6c792072656e6f756e636520726f6c657320666f722073656c66a2646970667358221220a535b8b66829e42363c4cdd0f0867e412dc4d3227b6711d09daccf8309bafb1164736f6c634300070400334f776e61626c653a206e6577206f776e657220697320746865207a65726f20616464726573738be0079c531659141344cd1fd0a4f28419497f9722a3daafe3b4186f6b6457e0a2646970667358221220a8b0f1701b8bdd9a4d2930aa8ddeadd54e1796d2c47fb243950545e621c802ac64736f6c63430007040033",
  "devdoc": {
    "kind": "dev",
    "methods": {
      "deployLimitedSupplyToken(string,string,address,uint256)": {
        "params": {
          "_amount": "uint256 Total supply of this token.",
          "_name": "string Token name.",
          "_symbol": "string Token symbol.",
          "_to": "address Address the total supply will be minted to."
        }
      },
      "deployNonFungibleToken(string,string,string,address)": {
        "params": {
          "_baseURI": "address BaseURI for the tokenURI value of a token",
          "_name": "string Token name.",
          "_owner": "address Address of the owner and first minter",
          "_symbol": "string Token symbol."
        }
      },
      "deployUnlimitedSupplyToken(string,string,address)": {
        "params": {
          "_name": "string Token name.",
          "_owner": "address Addres which is allowed to transfer tokens which are minted on the fly.",
          "_symbol": "string Token symbol."
        }
      }
    },
    "version": 1
  },
  "userdoc": {
    "kind": "user",
    "methods": {},
    "version": 1
  },
  "storageLayout": {
    "storage": [],
    "types": null
  }
}