{
  "address": "0xb7dA8C18CEFCcbBd942adB6D8FfC1b2F2CCB77cc",
  "abi": [
    {
      "anonymous": false,
      "inputs": [
        {
          "indexed": false,
          "internalType": "address",
          "name": "token",
          "type": "address"
        },
        {
          "indexed": false,
          "internalType": "enum ITokenFactory.TokenType",
          "name": "tokenType",
          "type": "uint8"
        }
      ],
      "name": "TokenDeployed",
      "type": "event"
    },
    {
      "inputs": [
        {
          "internalType": "string",
          "name": "_name",
          "type": "string"
        },
        {
          "internalType": "string",
          "name": "_symbol",
          "type": "string"
        },
        {
          "internalType": "address",
          "name": "to",
          "type": "address"
        },
        {
          "internalType": "uint256",
          "name": "amount",
          "type": "uint256"
        }
      ],
      "name": "deployLimitedSupplyToken",
      "outputs": [],
      "stateMutability": "nonpayable",
      "type": "function"
    },
    {
      "inputs": [
        {
          "internalType": "string",
          "name": "_name",
          "type": "string"
        },
        {
          "internalType": "string",
          "name": "_symbol",
          "type": "string"
        },
        {
          "internalType": "address",
          "name": "_unlimited",
          "type": "address"
        }
      ],
      "name": "deployUnlimitedSupplyToken",
      "outputs": [],
      "stateMutability": "nonpayable",
      "type": "function"
    }
  ],
  "transactionHash": "0xc72c269ae451665990f7aa9ecaa8ecd785ec9e5baf07eebf044aba1f88efa1e1",
  "args": [],
  "numDeployments": 2,
  "solcInputHash": "9b7de473a94ea62103960f3b25e5ed18",
  "bytecode": "0x608060405234801561001057600080fd5b50612607806100206000396000f3fe60806040523480156200001157600080fd5b50600436106200003a5760003560e01c80630a11a432146200003f5780636d066b061462000058575b600080fd5b6200005662000050366004620002aa565b6200006f565b005b620000566200006936600462000324565b620000fc565b620000796200018c565b60008383836040516200008c90620001f3565b6200009a939291906200041c565b604051809103906000f080158015620000b7573d6000803e3d6000fd5b5090507f5c0bdd573f1186139a66b523ab6e6ce1e2deb91d74e1b98c56ecac41c7627b01816001604051620000ee929190620003f4565b60405180910390a150505050565b620001066200018c565b6000848484846040516200011a9062000201565b6200012994939291906200045e565b604051809103906000f08015801562000146573d6000803e3d6000fd5b5090507f5c0bdd573f1186139a66b523ab6e6ce1e2deb91d74e1b98c56ecac41c7627b018160006040516200017d929190620003f4565b60405180910390a15050505050565b62000196620001cf565b600401546001600160a01b03163314620001cd5760405162461bcd60e51b8152600401620001c490620004a4565b60405180910390fd5b565b7fc8fcad8db84d3cc18b4c41d551ea0ee66dd599cde068d998e57d5e09332c131c90565b61108680620004e783390190565b611065806200156d83390190565b80356001600160a01b03811681146200022757600080fd5b919050565b600082601f8301126200023d578081fd5b813567ffffffffffffffff808211156200025357fe5b604051601f8301601f1916810160200182811182821017156200027257fe5b6040528281529250828483016020018610156200028e57600080fd5b8260208601602083013760006020848301015250505092915050565b600080600060608486031215620002bf578283fd5b833567ffffffffffffffff80821115620002d7578485fd5b620002e5878388016200022c565b94506020860135915080821115620002fb578384fd5b506200030a868287016200022c565b9250506200031b604085016200020f565b90509250925092565b600080600080608085870312156200033a578081fd5b843567ffffffffffffffff8082111562000352578283fd5b62000360888389016200022c565b9550602087013591508082111562000376578283fd5b5062000385878288016200022c565b93505062000396604086016200020f565b9396929550929360600135925050565b60008151808452815b81811015620003cd57602081850181015186830182015201620003af565b81811115620003df5782602083870101525b50601f01601f19169290920160200192915050565b6001600160a01b038316815260408101600283106200040f57fe5b8260208301529392505050565b600060608252620004316060830186620003a6565b8281036020840152620004458186620003a6565b91505060018060a01b0383166040830152949350505050565b600060808252620004736080830187620003a6565b8281036020840152620004878187620003a6565b6001600160a01b0395909516604084015250506060015292915050565b60208082526022908201527f4c69624469616d6f6e643a204d75737420626520636f6e7472616374206f776e60408201526132b960f11b60608201526080019056fe60a06040523480156200001157600080fd5b506040516200108638038062001086833981810160405260608110156200003757600080fd5b81019080805160405193929190846401000000008211156200005857600080fd5b9083019060208201858111156200006e57600080fd5b82516401000000008111828201881017156200008957600080fd5b82525081516020918201929091019080838360005b83811015620000b85781810151838201526020016200009e565b50505050905090810190601f168015620000e65780820380516001836020036101000a031916815260200191505b50604052602001805160405193929190846401000000008211156200010a57600080fd5b9083019060208201858111156200012057600080fd5b82516401000000008111828201881017156200013b57600080fd5b82525081516020918201929091019080838360005b838110156200016a57818101518382015260200162000150565b50505050905090810190601f168015620001985780820380516001836020036101000a031916815260200191505b5060405260209081015185519093508592508491620001bd91600391850190620001fe565b508051620001d3906004906020840190620001fe565b505060058054601260ff199091161790555060601b6001600160601b03191660805250620002aa9050565b828054600181600116156101000203166002900490600052602060002090601f01602090048101928262000236576000855562000281565b82601f106200025157805160ff191683800117855562000281565b8280016001018555821562000281579182015b828111156200028157825182559160200191906001019062000264565b506200028f92915062000293565b5090565b5b808211156200028f576000815560010162000294565b60805160601c610db9620002cd600039806106625280610b4b5250610db96000f3fe608060405234801561001057600080fd5b50600436106100b45760003560e01c806370a082311161007157806370a082311461021057806395d89b4114610236578063a457c2d71461023e578063a9059cbb1461026a578063cb457d4714610296578063dd62ed3e146102ba576100b4565b806306fdde03146100b9578063095ea7b31461013657806318160ddd1461017657806323b872dd14610190578063313ce567146101c657806339509351146101e4575b600080fd5b6100c16102e8565b6040805160208082528351818301528351919283929083019185019080838360005b838110156100fb5781810151838201526020016100e3565b50505050905090810190601f1680156101285780820380516001836020036101000a031916815260200191505b509250505060405180910390f35b6101626004803603604081101561014c57600080fd5b506001600160a01b03813516906020013561037e565b604080519115158252519081900360200190f35b61017e61039b565b60408051918252519081900360200190f35b610162600480360360608110156101a657600080fd5b506001600160a01b038135811691602081013590911690604001356103a1565b6101ce610511565b6040805160ff9092168252519081900360200190f35b610162600480360360408110156101fa57600080fd5b506001600160a01b03813516906020013561051a565b61017e6004803603602081101561022657600080fd5b50356001600160a01b0316610568565b6100c1610583565b6101626004803603604081101561025457600080fd5b506001600160a01b0381351690602001356105e4565b6101626004803603604081101561028057600080fd5b506001600160a01b03813516906020013561064c565b61029e610660565b604080516001600160a01b039092168252519081900360200190f35b61017e600480360360408110156102d057600080fd5b506001600160a01b0381358116916020013516610684565b60038054604080516020601f60026000196101006001881615020190951694909404938401819004810282018101909252828152606093909290918301828280156103745780601f1061034957610100808354040283529160200191610374565b820191906000526020600020905b81548152906001019060200180831161035757829003601f168201915b5050505050905090565b600061039261038b6106af565b84846106b3565b50600192915050565b60025490565b60006103d06040518060400160405280600c81526020016b7472616e7366657246726f6d60a01b81525061079f565b6103d984610848565b6103e283610848565b6103eb33610848565b6103fb6103f66106af565b610848565b61040482610894565b6001600160a01b038416600090815260016020526040812061044e916104286106af565b6001600160a01b03166001600160a01b0316815260200190815260200160002054610894565b61048c6001600061045d6106af565b6001600160a01b0390811682526020808301939093526040918201600090812091891681529252902054610894565b6104978484846108d5565b610507846104a36106af565b61050285604051806060016040528060288152602001610cee602891396001600160a01b038a166000908152600160205260408120906104e16106af565b6001600160a01b031681526020810191909152604001600020549190610a30565b6106b3565b5060019392505050565b60055460ff1690565b60006103926105276106af565b8461050285600160006105386106af565b6001600160a01b03908116825260208083019390935260409182016000908120918c168152925290205490610ac7565b6001600160a01b031660009081526020819052604090205490565b60048054604080516020601f60026000196101006001881615020190951694909404938401819004810282018101909252828152606093909290918301828280156103745780601f1061034957610100808354040283529160200191610374565b60006103926105f16106af565b8461050285604051806060016040528060258152602001610d5f602591396001600061061b6106af565b6001600160a01b03908116825260208083019390935260409182016000908120918d16815292529020549190610a30565b60006103926106596106af565b84846108d5565b7f000000000000000000000000000000000000000000000000000000000000000081565b6001600160a01b03918216600090815260016020908152604080832093909416825291909152205490565b3390565b6001600160a01b0383166106f85760405162461bcd60e51b8152600401808060200182810382526024815260200180610d3b6024913960400191505060405180910390fd5b6001600160a01b03821661073d5760405162461bcd60e51b8152600401808060200182810382526022815260200180610ca66022913960400191505060405180910390fd5b6001600160a01b03808416600081815260016020908152604080832094871680845294825291829020859055815185815291517f8c5be1e5ebec7d5bd14f71427d1e84f3dd0314c0f7b2291e5b200ac8c7c3b9259281900390910190a3505050565b610845816040516024018080602001828103825283818151815260200191508051906020019080838360005b838110156107e35781810151838201526020016107cb565b50505050905090810190601f1680156108105780820380516001836020036101000a031916815260200191505b5060408051601f198184030181529190526020810180516001600160e01b031663104c13eb60e21b1790529250610b28915050565b50565b604080516001600160a01b0383166024808301919091528251808303909101815260449091019091526020810180516001600160e01b031663161765e160e11b17905261084590610b28565b6040805160248082018490528251808303909101815260449091019091526020810180516001600160e01b031663f5b1bba960e01b17905261084590610b28565b6001600160a01b03831661091a5760405162461bcd60e51b8152600401808060200182810382526025815260200180610d166025913960400191505060405180910390fd5b6001600160a01b03821661095f5760405162461bcd60e51b8152600401808060200182810382526023815260200180610c836023913960400191505060405180910390fd5b61096a838383610b49565b6109a781604051806060016040528060268152602001610cc8602691396001600160a01b0386166000908152602081905260409020549190610a30565b6001600160a01b0380851660009081526020819052604080822093909355908416815220546109d69082610ac7565b6001600160a01b038084166000818152602081815260409182902094909455805185815290519193928716927fddf252ad1be2c89b69c2b068fc378daa952ba7f163c4a11628f55a4df523b3ef92918290030190a3505050565b60008184841115610abf5760405162461bcd60e51b81526004018080602001828103825283818151815260200191508051906020019080838360005b83811015610a84578181015183820152602001610a6c565b50505050905090810190601f168015610ab15780820380516001836020036101000a031916815260200191505b509250505060405180910390fd5b505050900390565b600082820183811015610b21576040805162461bcd60e51b815260206004820152601b60248201527f536166654d6174683a206164646974696f6e206f766572666c6f770000000000604482015290519081900360640190fd5b9392505050565b80516a636f6e736f6c652e6c6f67602083016000808483855afa5050505050565b7f00000000000000000000000000000000000000000000000000000000000000006001600160a01b0316836001600160a01b03161415610b8d57610b8d8382610b92565b505050565b6001600160a01b038216610bed576040805162461bcd60e51b815260206004820152601f60248201527f45524332303a206d696e7420746f20746865207a65726f206164647265737300604482015290519081900360640190fd5b610bf960008383610b49565b600254610c069082610ac7565b6002556001600160a01b038216600090815260208190526040902054610c2c9082610ac7565b6001600160a01b0383166000818152602081815260408083209490945583518581529351929391927fddf252ad1be2c89b69c2b068fc378daa952ba7f163c4a11628f55a4df523b3ef9281900390910190a3505056fe45524332303a207472616e7366657220746f20746865207a65726f206164647265737345524332303a20617070726f766520746f20746865207a65726f206164647265737345524332303a207472616e7366657220616d6f756e7420657863656564732062616c616e636545524332303a207472616e7366657220616d6f756e74206578636565647320616c6c6f77616e636545524332303a207472616e736665722066726f6d20746865207a65726f206164647265737345524332303a20617070726f76652066726f6d20746865207a65726f206164647265737345524332303a2064656372656173656420616c6c6f77616e63652062656c6f77207a65726fa2646970667358221220ec00e574c7edced7a417b1fff5616be881ed7d2019fd09ad76ea276e22731f1064736f6c6343000704003360806040523480156200001157600080fd5b506040516200106538038062001065833981810160405260808110156200003757600080fd5b81019080805160405193929190846401000000008211156200005857600080fd5b9083019060208201858111156200006e57600080fd5b82516401000000008111828201881017156200008957600080fd5b82525081516020918201929091019080838360005b83811015620000b85781810151838201526020016200009e565b50505050905090810190601f168015620000e65780820380516001836020036101000a031916815260200191505b50604052602001805160405193929190846401000000008211156200010a57600080fd5b9083019060208201858111156200012057600080fd5b82516401000000008111828201881017156200013b57600080fd5b82525081516020918201929091019080838360005b838110156200016a57818101518382015260200162000150565b50505050905090810190601f168015620001985780820380516001836020036101000a031916815260200191505b50604090815260208281015192909101518651929450925085918591620001c59160039185019062000377565b508051620001db90600490602084019062000377565b50506005805460ff1916601217905550620001f7828262000201565b5050505062000423565b6001600160a01b0382166200025d576040805162461bcd60e51b815260206004820152601f60248201527f45524332303a206d696e7420746f20746865207a65726f206164647265737300604482015290519081900360640190fd5b6200026b6000838362000310565b62000287816002546200031560201b6200065c1790919060201c565b6002556001600160a01b03821660009081526020818152604090912054620002ba9183906200065c62000315821b17901c565b6001600160a01b0383166000818152602081815260408083209490945583518581529351929391927fddf252ad1be2c89b69c2b068fc378daa952ba7f163c4a11628f55a4df523b3ef9281900390910190a35050565b505050565b60008282018381101562000370576040805162461bcd60e51b815260206004820152601b60248201527f536166654d6174683a206164646974696f6e206f766572666c6f770000000000604482015290519081900360640190fd5b9392505050565b828054600181600116156101000203166002900490600052602060002090601f016020900481019282620003af5760008555620003fa565b82601f10620003ca57805160ff1916838001178555620003fa565b82800160010185558215620003fa579182015b82811115620003fa578251825591602001919060010190620003dd565b50620004089291506200040c565b5090565b5b808211156200040857600081556001016200040d565b610c3280620004336000396000f3fe608060405234801561001057600080fd5b50600436106100a95760003560e01c8063395093511161007157806339509351146101d957806370a082311461020557806395d89b411461022b578063a457c2d714610233578063a9059cbb1461025f578063dd62ed3e1461028b576100a9565b806306fdde03146100ae578063095ea7b31461012b57806318160ddd1461016b57806323b872dd14610185578063313ce567146101bb575b600080fd5b6100b66102b9565b6040805160208082528351818301528351919283929083019185019080838360005b838110156100f05781810151838201526020016100d8565b50505050905090810190601f16801561011d5780820380516001836020036101000a031916815260200191505b509250505060405180910390f35b6101576004803603604081101561014157600080fd5b506001600160a01b03813516906020013561034f565b604080519115158252519081900360200190f35b61017361036c565b60408051918252519081900360200190f35b6101576004803603606081101561019b57600080fd5b506001600160a01b03813581169160208101359091169060400135610372565b6101c36104e2565b6040805160ff9092168252519081900360200190f35b610157600480360360408110156101ef57600080fd5b506001600160a01b0381351690602001356104eb565b6101736004803603602081101561021b57600080fd5b50356001600160a01b0316610539565b6100b6610554565b6101576004803603604081101561024957600080fd5b506001600160a01b0381351690602001356105b5565b6101576004803603604081101561027557600080fd5b506001600160a01b03813516906020013561061d565b610173600480360360408110156102a157600080fd5b506001600160a01b0381358116916020013516610631565b60038054604080516020601f60026000196101006001881615020190951694909404938401819004810282018101909252828152606093909290918301828280156103455780601f1061031a57610100808354040283529160200191610345565b820191906000526020600020905b81548152906001019060200180831161032857829003601f168201915b5050505050905090565b600061036361035c6106bd565b84846106c1565b50600192915050565b60025490565b60006103a16040518060400160405280600c81526020016b7472616e7366657246726f6d60a01b8152506107ad565b6103aa84610856565b6103b383610856565b6103bc33610856565b6103cc6103c76106bd565b610856565b6103d5826108a2565b6001600160a01b038416600090815260016020526040812061041f916103f96106bd565b6001600160a01b03166001600160a01b03168152602001908152602001600020546108a2565b61045d6001600061042e6106bd565b6001600160a01b03908116825260208083019390935260409182016000908120918916815292529020546108a2565b6104688484846108e3565b6104d8846104746106bd565b6104d385604051806060016040528060288152602001610b67602891396001600160a01b038a166000908152600160205260408120906104b26106bd565b6001600160a01b031681526020810191909152604001600020549190610a3e565b6106c1565b5060019392505050565b60055460ff1690565b60006103636104f86106bd565b846104d385600160006105096106bd565b6001600160a01b03908116825260208083019390935260409182016000908120918c16815292529020549061065c565b6001600160a01b031660009081526020819052604090205490565b60048054604080516020601f60026000196101006001881615020190951694909404938401819004810282018101909252828152606093909290918301828280156103455780601f1061031a57610100808354040283529160200191610345565b60006103636105c26106bd565b846104d385604051806060016040528060258152602001610bd860259139600160006105ec6106bd565b6001600160a01b03908116825260208083019390935260409182016000908120918d16815292529020549190610a3e565b600061036361062a6106bd565b84846108e3565b6001600160a01b03918216600090815260016020908152604080832093909416825291909152205490565b6000828201838110156106b6576040805162461bcd60e51b815260206004820152601b60248201527f536166654d6174683a206164646974696f6e206f766572666c6f770000000000604482015290519081900360640190fd5b9392505050565b3390565b6001600160a01b0383166107065760405162461bcd60e51b8152600401808060200182810382526024815260200180610bb46024913960400191505060405180910390fd5b6001600160a01b03821661074b5760405162461bcd60e51b8152600401808060200182810382526022815260200180610b1f6022913960400191505060405180910390fd5b6001600160a01b03808416600081815260016020908152604080832094871680845294825291829020859055815185815291517f8c5be1e5ebec7d5bd14f71427d1e84f3dd0314c0f7b2291e5b200ac8c7c3b9259281900390910190a3505050565b610853816040516024018080602001828103825283818151815260200191508051906020019080838360005b838110156107f15781810151838201526020016107d9565b50505050905090810190601f16801561081e5780820380516001836020036101000a031916815260200191505b5060408051601f198184030181529190526020810180516001600160e01b031663104c13eb60e21b1790529250610ad5915050565b50565b604080516001600160a01b0383166024808301919091528251808303909101815260449091019091526020810180516001600160e01b031663161765e160e11b17905261085390610ad5565b6040805160248082018490528251808303909101815260449091019091526020810180516001600160e01b031663f5b1bba960e01b17905261085390610ad5565b6001600160a01b0383166109285760405162461bcd60e51b8152600401808060200182810382526025815260200180610b8f6025913960400191505060405180910390fd5b6001600160a01b03821661096d5760405162461bcd60e51b8152600401808060200182810382526023815260200180610afc6023913960400191505060405180910390fd5b610978838383610af6565b6109b581604051806060016040528060268152602001610b41602691396001600160a01b0386166000908152602081905260409020549190610a3e565b6001600160a01b0380851660009081526020819052604080822093909355908416815220546109e4908261065c565b6001600160a01b038084166000818152602081815260409182902094909455805185815290519193928716927fddf252ad1be2c89b69c2b068fc378daa952ba7f163c4a11628f55a4df523b3ef92918290030190a3505050565b60008184841115610acd5760405162461bcd60e51b81526004018080602001828103825283818151815260200191508051906020019080838360005b83811015610a92578181015183820152602001610a7a565b50505050905090810190601f168015610abf5780820380516001836020036101000a031916815260200191505b509250505060405180910390fd5b505050900390565b80516a636f6e736f6c652e6c6f67602083016000808483855afa5050505050565b50505056fe45524332303a207472616e7366657220746f20746865207a65726f206164647265737345524332303a20617070726f766520746f20746865207a65726f206164647265737345524332303a207472616e7366657220616d6f756e7420657863656564732062616c616e636545524332303a207472616e7366657220616d6f756e74206578636565647320616c6c6f77616e636545524332303a207472616e736665722066726f6d20746865207a65726f206164647265737345524332303a20617070726f76652066726f6d20746865207a65726f206164647265737345524332303a2064656372656173656420616c6c6f77616e63652062656c6f77207a65726fa26469706673582212205a29c9232d0bb9f5cfdb39a0a75c8afa55fea06e0bc7f56116603a4374cf5f1964736f6c63430007040033a2646970667358221220a03d99575e396b24d47f198822faba4b84e449167b5f7b6ca63af73b015ab0e064736f6c63430007040033",
  "devdoc": {
    "kind": "dev",
    "methods": {
      "deployLimitedSupplyToken(string,string,address,uint256)": {
        "params": {
          "_name": "string Token name.",
          "_symbol": "string Token symbol.",
          "amount": "uint256 Total supply of this token.",
          "to": "address Address the total supply will be minted to."
        }
      },
      "deployUnlimitedSupplyToken(string,string,address)": {
        "params": {
          "_name": "string Token name.",
          "_symbol": "string Token symbol.",
          "_unlimited": "address Addres which is allowed to transfer tokens which are minted on the fly."
        }
      }
    },
    "version": 1
  },
  "userdoc": {
    "kind": "user",
    "methods": {},
    "version": 1
  },
  "storageLayout": {
    "storage": [],
    "types": null
  }
}