{
  "address": "0x0507F701A551B9F45C8A12A80fcE30EDe493E6d8",
  "abi": [
    {
      "anonymous": false,
      "inputs": [
        {
          "indexed": true,
          "internalType": "bytes32",
          "name": "role",
          "type": "bytes32"
        },
        {
          "indexed": true,
          "internalType": "bytes32",
          "name": "previousAdminRole",
          "type": "bytes32"
        },
        {
          "indexed": true,
          "internalType": "bytes32",
          "name": "newAdminRole",
          "type": "bytes32"
        }
      ],
      "name": "RoleAdminChanged",
      "type": "event"
    },
    {
      "anonymous": false,
      "inputs": [
        {
          "indexed": true,
          "internalType": "bytes32",
          "name": "role",
          "type": "bytes32"
        },
        {
          "indexed": true,
          "internalType": "address",
          "name": "account",
          "type": "address"
        },
        {
          "indexed": true,
          "internalType": "address",
          "name": "sender",
          "type": "address"
        }
      ],
      "name": "RoleGranted",
      "type": "event"
    },
    {
      "anonymous": false,
      "inputs": [
        {
          "indexed": true,
          "internalType": "bytes32",
          "name": "role",
          "type": "bytes32"
        },
        {
          "indexed": true,
          "internalType": "address",
          "name": "account",
          "type": "address"
        },
        {
          "indexed": true,
          "internalType": "address",
          "name": "sender",
          "type": "address"
        }
      ],
      "name": "RoleRevoked",
      "type": "event"
    },
    {
      "anonymous": false,
      "inputs": [
        {
          "indexed": false,
          "internalType": "uint256",
          "name": "fee",
          "type": "uint256"
        }
      ],
      "name": "WithdrawFeeCollected",
      "type": "event"
    },
    {
      "anonymous": false,
      "inputs": [
        {
          "indexed": false,
          "internalType": "uint256",
          "name": "id",
          "type": "uint256"
        },
        {
          "indexed": false,
          "internalType": "bool",
          "name": "approved",
          "type": "bool"
        }
      ],
      "name": "WithdrawPollFinalized",
      "type": "event"
    },
    {
      "anonymous": false,
      "inputs": [
        {
          "indexed": false,
          "internalType": "uint256",
          "name": "id",
          "type": "uint256"
        },
        {
          "indexed": true,
          "internalType": "address",
          "name": "member",
          "type": "address"
        }
      ],
      "name": "WithdrawPollRevokedVote",
      "type": "event"
    },
    {
      "anonymous": false,
      "inputs": [
        {
          "indexed": false,
          "internalType": "uint256",
          "name": "id",
          "type": "uint256"
        },
        {
          "indexed": true,
          "internalType": "address",
          "name": "member",
          "type": "address"
        },
        {
          "indexed": false,
          "internalType": "bool",
          "name": "vote",
          "type": "bool"
        }
      ],
      "name": "WithdrawPollVoted",
      "type": "event"
    },
    {
      "anonymous": false,
      "inputs": [
        {
          "indexed": false,
          "internalType": "uint256",
          "name": "id",
          "type": "uint256"
        },
        {
          "indexed": true,
          "internalType": "address",
          "name": "member",
          "type": "address"
        },
        {
          "indexed": false,
          "internalType": "uint256",
          "name": "reward",
          "type": "uint256"
        }
      ],
      "name": "Withdrawn",
      "type": "event"
    },
    {
      "inputs": [],
      "name": "_withdrawPollApprovalState",
      "outputs": [
        {
          "internalType": "bool",
          "name": "",
          "type": "bool"
        }
      ],
      "stateMutability": "view",
      "type": "function"
    },
    {
      "inputs": [],
      "name": "_withdrawPollFinalize",
      "outputs": [],
      "stateMutability": "nonpayable",
      "type": "function"
    },
    {
      "inputs": [],
      "name": "_withdrawPollRevokeVote",
      "outputs": [],
      "stateMutability": "nonpayable",
      "type": "function"
    },
    {
      "inputs": [
        {
          "internalType": "bool",
          "name": "_agree",
          "type": "bool"
        }
      ],
      "name": "_withdrawPollVote",
      "outputs": [],
      "stateMutability": "nonpayable",
      "type": "function"
    },
    {
      "inputs": [
        {
          "internalType": "uint256",
          "name": "_id",
          "type": "uint256"
        }
      ],
      "name": "getAmount",
      "outputs": [
        {
          "internalType": "uint256",
          "name": "",
          "type": "uint256"
        }
      ],
      "stateMutability": "view",
      "type": "function"
    },
    {
      "inputs": [
        {
          "internalType": "uint256",
          "name": "_id",
          "type": "uint256"
        }
      ],
      "name": "getBeneficiary",
      "outputs": [
        {
          "internalType": "uint256",
          "name": "",
          "type": "uint256"
        }
      ],
      "stateMutability": "view",
      "type": "function"
    },
    {
      "inputs": [
        {
          "internalType": "uint256",
          "name": "_id",
          "type": "uint256"
        }
      ],
      "name": "getUnlockDate",
      "outputs": [
        {
          "internalType": "uint256",
          "name": "",
          "type": "uint256"
        }
      ],
      "stateMutability": "view",
      "type": "function"
    }
  ],
  "transactionHash": "0x12029914f6486764b8db22f480695af3ad54f9dc81dc88a352a98e78b92351fc",
  "args": [],
  "numDeployments": 3,
  "solcInputHash": "42b63a5b8a99a131e79e44ee4664d9b4",
  "bytecode": "0x608060405234801561001057600080fd5b50611322806100206000396000f3fe608060405234801561001057600080fd5b506004361061007d5760003560e01c8063935565221161005b57806393556522146100ca5780639980ec86146100dd578063b414838f146100f0578063d18faaa8146101035761007d565b8063302df083146100825780637bfefd65146100ab5780637dad9c39146100c0575b600080fd5b61009561009036600461116c565b61010b565b6040516100a2919061122d565b60405180910390f35b6100b361011d565b6040516100a2919061119c565b6100c861016c565b005b6100956100d836600461116c565b610202565b6100956100eb36600461116c565b610217565b6100c86100fe36600461114c565b61022c565b6100c86102d4565b600061011682610378565b5492915050565b60008061012861038b565b905060006101398260000154610378565b80549091506101635760405162461bcd60e51b815260040161015a906111de565b60405180910390fd5b60019250505090565b600061017661038b565b905060006101878260000154610378565b80549091506101a85760405162461bcd60e51b815260040161015a906111de565b3330146101b457600080fd5b60006101be61038b565b905060006101cf8260000154610378565b9050806002015442116101f45760405162461bcd60e51b815260040161015a906111a7565b6101fc6103a2565b50505050565b600061020d82610378565b6002015492915050565b600061022282610378565b6001015492915050565b600061023661038b565b905060006102478260000154610378565b80549091506102685760405162461bcd60e51b815260040161015a906111de565b33301461027457600080fd5b61027d83610429565b61028561060d565b6001600160a01b03167fa9fd0834e2afbba73e314f3cf92c04a694d27ab99e31eb4ce8e51d57f7890d596102b761038b565b546040516102c791908790611236565b60405180910390a2505050565b60006102de61038b565b905060006102ef8260000154610378565b80549091506103105760405162461bcd60e51b815260040161015a906111de565b33301461031c57600080fd5b61032461065a565b61032c61060d565b6001600160a01b03167fee64e7a6623d1cff201c83363d0162fe855c5f1b7fc38f48bdb14968a1c8fb5761035e61038b565b5460405161036c919061122d565b60405180910390a25050565b600080610384836107c2565b9392505050565b600061039d61039861080e565b610856565b905090565b60006103ac61038b565b905080600201544210156103f5576040805162461bcd60e51b815260206004820152600b60248201526a57524f4e475f535441544560a81b604482015290519081900360640190fd5b805461040090610859565b600080825560018201819055600282018190556003820181905560048201819055600590910155565b600061043361038b565b90508060010154421015801561044d575080600201544211155b610491576040805162461bcd60e51b815260206004820152601060248201526f49535f4e4f5f56414c49445f54494d4560801b604482015290519081900360640190fd5b6104a161049c61060d565b610aef565b60006104ab61038b565b90508060060160006104bb61060d565b6001600160a01b0316815260208101919091526040016000205415610513576040805162461bcd60e51b8152602060048201526009602482015268121054d7d593d5115160ba1b604482015290519081900360640190fd5b6001831561053457600382015461052a9082610b17565b6003830155610549565b60048201546105439082610b17565b60048301555b4282600601600061055861060d565b6001600160a01b03166001600160a01b03168152602001908152602001600020600001819055508082600601600061058e61060d565b6001600160a01b03166001600160a01b0316815260200190815260200160002060010181905550838260060160006105c461060d565b6001600160a01b031681526020810191909152604001600020600201805460ff191691151591909117905560058201546105ff906001610b17565b826005018190555050505050565b600060606000368080601f0160208091040260200160405190810160405280939291908181526020018383808284376000920191909152505050503601516001600160a01b031692915050565b600061066461038b565b90508060010154421015801561067e575080600201544211155b6106c2576040805162461bcd60e51b815260206004820152601060248201526f49535f4e4f5f56414c49445f54494d4560801b604482015290519081900360640190fd5b60006106cc61038b565b905060006106d861060d565b6001600160a01b0381166000908152600684016020526040902054909150610737576040805162461bcd60e51b815260206004820152600d60248201526c121054d7d393d517d593d51151609a1b604482015290519081900360640190fd5b6001600160a01b0381166000908152600683016020526040812060018082018054600284018054948690559490915560ff198316909355600585015460ff9092169161078291610b7a565b600585015580156107a657600384015461079c9083610b7a565b60038501556107bb565b60048401546107b59083610b7a565b60048501555b5050505050565b60008160405160200180806020018381526020018281038252602781526020018061129c6027913960400192505050604051602081830303815290604052805190602001209050919050565b600060606000368080601f0160208091040260200160405190810160405280939291908181526020018383808284376000920191909152505050503601601319015192915050565b90565b600061086361011d565b9050600061087083610378565b90508115610aa0576000610882610bbc565b905060008160000160009054906101000a90046001600160a01b031690506000610933670de0b6b3a764000061092d846001600160a01b031663a001ecdd6040518163ffffffff1660e01b815260040160206040518083038186803b1580156108ea57600080fd5b505afa1580156108fe573d6000803e3d6000fd5b505050506040513d601f19601f820116820180604052508101906109229190611184565b600188015490610be0565b90610c39565b905080156109fc576109c4826001600160a01b031663c415b95c6040518163ffffffff1660e01b815260040160206040518083038186803b15801561097757600080fd5b505afa15801561098b573d6000803e3d6000fd5b505050506040513d601f19601f820116820180604052508101906109af9190611125565b60028501546001600160a01b03169083610c7b565b7f5e4930f7742bd71d2de1552a88134ec1f7408a0bdf834f9e1b1f35e976b169e0816040516109f3919061122d565b60405180910390a15b6000610a06610cd2565b85546000908152600291909101602052604090205460018601546001600160a01b03909116915015610a9b5760018501546002850154610a53916001600160a01b03909116908390610c7b565b806001600160a01b03167fcf7d23a3cbe4e8b36ff82fd1b05b1b17373dc7804b4ebbd6e2356716ef202372888760010154604051610a92929190611246565b60405180910390a25b505050505b7fa207d5145c3030050ff72fa91f5f37445b6aa4850cf1f03c11c24b5f7dd458338383604051610ad1929190611236565b60405180910390a16000808255600182018190556002909101555050565b610af881610cf6565b610b145760405162461bcd60e51b815260040161015a90611209565b50565b600082820183811015610b71576040805162461bcd60e51b815260206004820152601b60248201527f536166654d6174683a206164646974696f6e206f766572666c6f770000000000604482015290519081900360640190fd5b90505b92915050565b6000610b7183836040518060400160405280601e81526020017f536166654d6174683a207375627472616374696f6e206f766572666c6f770000815250610d22565b7fa716b7cce20ffbe12e5c0af3eb2f57d81251cd975b53428558ae4ad51b4f942590565b600082610bef57506000610b74565b82820282848281610bfc57fe5b0414610b715760405162461bcd60e51b815260040180806020018281038252602181526020018061127b6021913960400191505060405180910390fd5b6000610b7183836040518060400160405280601a81526020017f536166654d6174683a206469766973696f6e206279207a65726f000000000000815250610db9565b604080516001600160a01b038416602482015260448082018490528251808303909101815260649091019091526020810180516001600160e01b031663a9059cbb60e01b179052610ccd908490610e1e565b505050565b7faa97fdeef5de5607974189e6a2429d502dcc32b43d658c3c065d5ca083ee1fab90565b6000610b747f241ecf16d79d0f8dbfb92cbc07fe17840425976cf0667f022fe9877caa831b0883610ecf565b60008184841115610db15760405162461bcd60e51b81526004018080602001828103825283818151815260200191508051906020019080838360005b83811015610d76578181015183820152602001610d5e565b50505050905090810190601f168015610da35780820380516001836020036101000a031916815260200191505b509250505060405180910390fd5b505050900390565b60008183610e085760405162461bcd60e51b8152602060048201818152835160248401528351909283926044909101919085019080838360008315610d76578181015183820152602001610d5e565b506000838581610e1457fe5b0495945050505050565b6060610e73826040518060400160405280602081526020017f5361666545524332303a206c6f772d6c6576656c2063616c6c206661696c6564815250856001600160a01b0316610efd9092919063ffffffff16565b805190915015610ccd57808060200190516020811015610e9257600080fd5b5051610ccd5760405162461bcd60e51b815260040180806020018281038252602a8152602001806112c3602a913960400191505060405180910390fd5b600080610eda610f0c565b6000858152602082905260409020909150610ef59084610f30565b949350505050565b6060610ef58484600085610f45565b7f6282190449f76f72a9f692e4d8619a03764b7253394788948e36a7a57ba4a00e90565b6000610b71836001600160a01b0384166110a1565b606082471015610f865760405162461bcd60e51b81526004018080602001828103825260268152602001806112556026913960400191505060405180910390fd5b610f8f856110b9565b610fe0576040805162461bcd60e51b815260206004820152601d60248201527f416464726573733a2063616c6c20746f206e6f6e2d636f6e7472616374000000604482015290519081900360640190fd5b60006060866001600160a01b031685876040518082805190602001908083835b6020831061101f5780518252601f199092019160209182019101611000565b6001836020036101000a03801982511681845116808217855250505050505090500191505060006040518083038185875af1925050503d8060008114611081576040519150601f19603f3d011682016040523d82523d6000602084013e611086565b606091505b50915091506110968282866110bf565b979650505050505050565b60009081526001919091016020526040902054151590565b3b151590565b606083156110ce575081610384565b8251156110de5782518084602001fd5b60405162461bcd60e51b8152602060048201818152845160248401528451859391928392604401919085019080838360008315610d76578181015183820152602001610d5e565b600060208284031215611136578081fd5b81516001600160a01b0381168114610b71578182fd5b60006020828403121561115d578081fd5b81358015158114610b71578182fd5b60006020828403121561117d578081fd5b5035919050565b600060208284031215611195578081fd5b5051919050565b901515815260200190565b6020808252601d908201527f544f4f5f534f4f4e5f544f5f46494e414c495a455f5448455f504f4c4c000000604082015260600190565b6020808252601190820152701393d517d5d2551211149055d7d413d313607a1b604082015260600190565b6020808252600a90820152692727afa6a0a720a3a2a960b11b604082015260600190565b90815260200190565b9182521515602082015260400190565b91825260208201526040019056fe416464726573733a20696e73756666696369656e742062616c616e636520666f722063616c6c536166654d6174683a206d756c7469706c69636174696f6e206f766572666c6f776469616d6f6e642e636f6e74726163742e6173736574706f6f6c2e7769746864726177706f6c6c5361666545524332303a204552433230206f7065726174696f6e20646964206e6f742073756363656564a264697066735822122038fa6f295bf768b5ae102899989b4af7f81578ddd0b1de863b50fe3ec305775464736f6c63430007040033",
  "devdoc": {
    "kind": "dev",
    "methods": {
      "getAmount(uint256)": {
        "params": {
          "_id": "ID of the withdrawPoll to get the reward size for."
        },
        "returns": {
          "_0": "size of the withdrawal."
        }
      },
      "getBeneficiary(uint256)": {
        "params": {
          "_id": "ID of the withdrawPoll to get the beneficiary for."
        },
        "returns": {
          "_0": "address of the beneficicary of the reward."
        }
      },
      "getUnlockDate(uint256)": {
        "params": {
          "_id": "ID of the withdrawPoll to get the reward size for."
        },
        "returns": {
          "_0": "unlockDate of the withdrawal."
        }
      }
    },
    "version": 1
  },
  "userdoc": {
    "kind": "user",
    "methods": {},
    "version": 1
  },
  "storageLayout": {
    "storage": [],
    "types": null
  }
}