{
  "address": "0xF462bf6945d07BFdFAc5184D772f6Bc610045a34",
  "abi": [
    {
      "inputs": [
        {
          "internalType": "uint256",
          "name": "_id",
          "type": "uint256"
        }
      ],
      "name": "getEndTime",
      "outputs": [
        {
          "internalType": "uint256",
          "name": "",
          "type": "uint256"
        }
      ],
      "stateMutability": "view",
      "type": "function"
    },
    {
      "inputs": [
        {
          "internalType": "uint256",
          "name": "_id",
          "type": "uint256"
        }
      ],
      "name": "getNoCounter",
      "outputs": [
        {
          "internalType": "uint256",
          "name": "",
          "type": "uint256"
        }
      ],
      "stateMutability": "view",
      "type": "function"
    },
    {
      "inputs": [
        {
          "internalType": "uint256",
          "name": "_id",
          "type": "uint256"
        }
      ],
      "name": "getStartTime",
      "outputs": [
        {
          "internalType": "uint256",
          "name": "",
          "type": "uint256"
        }
      ],
      "stateMutability": "view",
      "type": "function"
    },
    {
      "inputs": [
        {
          "internalType": "uint256",
          "name": "_id",
          "type": "uint256"
        }
      ],
      "name": "getTotalVoted",
      "outputs": [
        {
          "internalType": "uint256",
          "name": "",
          "type": "uint256"
        }
      ],
      "stateMutability": "view",
      "type": "function"
    },
    {
      "inputs": [
        {
          "internalType": "uint256",
          "name": "_id",
          "type": "uint256"
        },
        {
          "internalType": "address",
          "name": "_address",
          "type": "address"
        }
      ],
      "name": "getVoteByAddress",
      "outputs": [
        {
          "components": [
            {
              "internalType": "uint256",
              "name": "time",
              "type": "uint256"
            },
            {
              "internalType": "uint256",
              "name": "weight",
              "type": "uint256"
            },
            {
              "internalType": "bool",
              "name": "agree",
              "type": "bool"
            }
          ],
          "internalType": "struct LibBasePollStorage.Vote",
          "name": "",
          "type": "tuple"
        }
      ],
      "stateMutability": "view",
      "type": "function"
    },
    {
      "inputs": [
        {
          "internalType": "uint256",
          "name": "_id",
          "type": "uint256"
        }
      ],
      "name": "getYesCounter",
      "outputs": [
        {
          "internalType": "uint256",
          "name": "",
          "type": "uint256"
        }
      ],
      "stateMutability": "view",
      "type": "function"
    }
  ],
  "transactionHash": "0xc67822c234cec24176a9009f73a789bda80122f3f65fdf421ba24c5520e67f30",
  "args": [],
  "numDeployments": 1,
  "solcInputHash": "5c67c6a6dd8a84dd36751173a0967b79",
  "bytecode": "0x608060405234801561001057600080fd5b5061031f806100206000396000f3fe608060405234801561001057600080fd5b50600436106100625760003560e01c80637b1b130e146100675780638e308119146100905780639067b677146100a3578063bc2be1be146100b6578063f0738fad146100c9578063f94e85d6146100dc575b600080fd5b61007a610075366004610248565b6100fc565b60405161008791906102bd565b60405180910390f35b61007a61009e366004610248565b610111565b61007a6100b1366004610248565b610126565b61007a6100c4366004610248565b61013b565b61007a6100d7366004610248565b610150565b6100ef6100ea366004610260565b610165565b604051610087919061029a565b6000610107826101c6565b6003015492915050565b600061011c826101c6565b6005015492915050565b6000610131826101c6565b6002015492915050565b6000610146826101c6565b6001015492915050565b600061015b826101c6565b6004015492915050565b61016d610225565b610176836101c6565b6001600160a01b038316600090815260069190910160209081526040918290208251606081018452815481526001820154928101929092526002015460ff16151591810191909152905092915050565b6000806101d2836101d9565b9392505050565b6000816040516020018080602001838152602001828103825260238152602001806102c76023913960400192505050604051602081830303815290604052805190602001209050919050565b604051806060016040528060008152602001600081526020016000151581525090565b600060208284031215610259578081fd5b5035919050565b60008060408385031215610272578081fd5b8235915060208301356001600160a01b038116811461028f578182fd5b809150509250929050565b815181526020808301519082015260409182015115159181019190915260600190565b9081526020019056fe6469616d6f6e642e636f6e74726163742e6173736574706f6f6c2e62617365706f6c6ca2646970667358221220a267ee0ab3135faa70335b42dab4d0c355bf22bdd341fa489925f905f78a709b64736f6c63430007040033",
  "devdoc": {
    "kind": "dev",
    "methods": {},
    "version": 1
  },
  "userdoc": {
    "kind": "user",
    "methods": {},
    "version": 1
  },
  "storageLayout": {
    "storage": [],
    "types": null
  }
}