{
  "address": "0x5E0A87862f9175493Cc1d02199ad18Eff87Eb400",
  "abi": [
    {
      "anonymous": false,
      "inputs": [
        {
          "indexed": true,
          "internalType": "uint256",
          "name": "minterID",
          "type": "uint256"
        },
        {
          "indexed": true,
          "internalType": "address",
          "name": "previousAddress",
          "type": "address"
        },
        {
          "indexed": true,
          "internalType": "address",
          "name": "newAddress",
          "type": "address"
        }
      ],
      "name": "MinterAddressChanged",
      "type": "event"
    },
    {
      "anonymous": false,
      "inputs": [
        {
          "indexed": true,
          "internalType": "bytes32",
          "name": "role",
          "type": "bytes32"
        },
        {
          "indexed": true,
          "internalType": "bytes32",
          "name": "previousAdminRole",
          "type": "bytes32"
        },
        {
          "indexed": true,
          "internalType": "bytes32",
          "name": "newAdminRole",
          "type": "bytes32"
        }
      ],
      "name": "RoleAdminChanged",
      "type": "event"
    },
    {
      "anonymous": false,
      "inputs": [
        {
          "indexed": true,
          "internalType": "bytes32",
          "name": "role",
          "type": "bytes32"
        },
        {
          "indexed": true,
          "internalType": "address",
          "name": "account",
          "type": "address"
        },
        {
          "indexed": true,
          "internalType": "address",
          "name": "sender",
          "type": "address"
        }
      ],
      "name": "RoleGranted",
      "type": "event"
    },
    {
      "anonymous": false,
      "inputs": [
        {
          "indexed": true,
          "internalType": "bytes32",
          "name": "role",
          "type": "bytes32"
        },
        {
          "indexed": true,
          "internalType": "address",
          "name": "account",
          "type": "address"
        },
        {
          "indexed": true,
          "internalType": "address",
          "name": "sender",
          "type": "address"
        }
      ],
      "name": "RoleRevoked",
      "type": "event"
    },
    {
      "inputs": [
        {
          "internalType": "address",
          "name": "_account",
          "type": "address"
        }
      ],
      "name": "addMinter",
      "outputs": [],
      "stateMutability": "nonpayable",
      "type": "function"
    },
    {
      "inputs": [
        {
          "internalType": "uint256",
          "name": "_minter",
          "type": "uint256"
        }
      ],
      "name": "getAddressByMinter",
      "outputs": [
        {
          "internalType": "address",
          "name": "",
          "type": "address"
        }
      ],
      "stateMutability": "view",
      "type": "function"
    },
    {
      "inputs": [
        {
          "internalType": "address",
          "name": "_address",
          "type": "address"
        }
      ],
      "name": "getMinterByAddress",
      "outputs": [
        {
          "internalType": "uint256",
          "name": "",
          "type": "uint256"
        }
      ],
      "stateMutability": "view",
      "type": "function"
    },
    {
      "inputs": [],
      "name": "getOwner",
      "outputs": [
        {
          "internalType": "address",
          "name": "",
          "type": "address"
        }
      ],
      "stateMutability": "view",
      "type": "function"
    },
    {
      "inputs": [
        {
          "internalType": "address",
          "name": "_owner",
          "type": "address"
        }
      ],
      "name": "initializeRoles",
      "outputs": [],
      "stateMutability": "nonpayable",
      "type": "function"
    },
    {
      "inputs": [
        {
          "internalType": "address",
          "name": "_account",
          "type": "address"
        }
      ],
      "name": "isMinter",
      "outputs": [
        {
          "internalType": "bool",
          "name": "",
          "type": "bool"
        }
      ],
      "stateMutability": "view",
      "type": "function"
    },
    {
      "inputs": [
        {
          "internalType": "address",
          "name": "_account",
          "type": "address"
        }
      ],
      "name": "isMinterRoleAdmin",
      "outputs": [
        {
          "internalType": "bool",
          "name": "",
          "type": "bool"
        }
      ],
      "stateMutability": "view",
      "type": "function"
    },
    {
      "inputs": [
        {
          "internalType": "address",
          "name": "_account",
          "type": "address"
        }
      ],
      "name": "removeMinter",
      "outputs": [],
      "stateMutability": "nonpayable",
      "type": "function"
    },
    {
      "inputs": [
        {
          "internalType": "address",
          "name": "_oldAddress",
          "type": "address"
        },
        {
          "internalType": "address",
          "name": "_newAddress",
          "type": "address"
        }
      ],
      "name": "upgradeAddress",
      "outputs": [],
      "stateMutability": "nonpayable",
      "type": "function"
    }
  ],
  "transactionHash": "0x99c25451a1e468e5f911944ee30b7d7f45cc7c1da53a2650631eb1974dae9348",
  "args": [],
  "numDeployments": 1,
  "solcInputHash": "79977927d6b8ac2cbb53638884e28eac",
  "bytecode": "0x608060405234801561001057600080fd5b50610b1b806100206000396000f3fe608060405234801561001057600080fd5b50600436106100935760003560e01c806382590a3f1161006657806382590a3f1461014c578063893d20e814610185578063983b2d561461018d578063aa271e1a146101b3578063de6dd5cd146101ed57610093565b806327eef566146100985780633092afd5146100c857806354208a2f146100ee5780637dcf967014610114575b600080fd5b6100c6600480360360408110156100ae57600080fd5b506001600160a01b0381358116916020013516610213565b005b6100c6600480360360208110156100de57600080fd5b50356001600160a01b03166103b7565b6100c66004803603602081101561010457600080fd5b50356001600160a01b031661041e565b61013a6004803603602081101561012a57600080fd5b50356001600160a01b031661049a565b60408051918252519081900360200190f35b6101696004803603602081101561016257600080fd5b50356104c6565b604080516001600160a01b039092168252519081900360200190f35b6101696104ed565b6100c6600480360360208110156101a357600080fd5b50356001600160a01b03166104fc565b6101d9600480360360208110156101c957600080fd5b50356001600160a01b0316610564565b604080519115158252519081900360200190f35b6101d96004803603602081101561020357600080fd5b50356001600160a01b0316610575565b61021b6105aa565b6001600160a01b0316826001600160a01b031614610271576040805162461bcd60e51b815260206004820152600e60248201526d27a6222fa727aa2fa9a2a72222a960911b604482015290519081900360640190fd5b600061027b6105f7565b6001600160a01b0384166000908152600182016020526040902054909150806102d8576040805162461bcd60e51b815260206004820152600a6024820152692727a72fa6a4a72a22a960b11b604482015290519081900360640190fd5b6001600160a01b03808516600090815260018401602090815260408083208390559286168083528383208590558483526002860190915291902080546001600160a01b031916909117905561033b600080516020610ac68339815191528561061b565b1561037057610358600080516020610ac683398151915285610674565b610370600080516020610ac6833981519152846106ef565b826001600160a01b0316846001600160a01b0316827fe1c9adcbd183f05ebb44558de548b79f313563c28a222f94dd6492d9ce9a1d7f60405160405180910390a450505050565b6103c960006103c46105aa565b61061b565b610403576040805162461bcd60e51b815260206004820152600660248201526541434345535360d01b604482015290519081900360640190fd5b61041b600080516020610ac683398151915282610674565b50565b6104266105f7565b5415610462576040805162461bcd60e51b815260206004808301919091526024820152631253925560e21b604482015290519081900360640190fd5b6103e861046d6105f7565b55610479600082610769565b610491600080516020610ac683398151915282610769565b61041b81610777565b60006104a46105f7565b6001600160a01b03929092166000908152600190920160205250604090205490565b60006104d06105f7565b60009283526002016020525060409020546001600160a01b031690565b60006104f76107f7565b905090565b61050960006103c46105aa565b610543576040805162461bcd60e51b815260206004820152600660248201526541434345535360d01b604482015290519081900360640190fd5b61054c81610777565b61041b600080516020610ac6833981519152826106ef565b600061056f82610801565b92915050565b600061056f61058261081b565b600080516020610ac6833981519152600090815260209190915260409020600401548361061b565b600060606000368080601f0160208091040260200160405190810160405280939291908181526020018383808284376000920191909152505050503601516001600160a01b031692915050565b7fe7885577c160bde88cf1708f56c732f0d5e3fd8cf2c2202e63ff602dd6f813ff90565b60008061062661081b565b9050610651604051806040016040528060078152602001661858d8dbdd5b9d60ca1b8152508461083f565b600084815260208290526040902061066c90600201846108f6565b949350505050565b600061067e61081b565b600084815260208290526040902090915061069c9060020183610912565b156106ea576106a96105aa565b6001600160a01b0316826001600160a01b0316847ff6391f5c32d9c69d2a47ea670b442974b53935d1edc7fd64eb21e047a839171b60405160405180910390a45b505050565b60006106f961081b565b60008481526020829052604090209091506107179060020183610927565b156106ea576107246105aa565b6001600160a01b0316826001600160a01b0316847f2f8788117e7eff1d82e926ec794901d17c78024a50270940304540a733656f0d60405160405180910390a4505050565b61077382826106ef565b5050565b60006107816105f7565b6001600160a01b038316600090815260018201602052604090205490915080156107ac57505061041b565b50805460019081018083556001600160a01b0384166000818152928401602090815260408085208490559284526002909401909352902080546001600160a01b031916909117905550565b60006104f761093c565b600061056f600080516020610ac68339815191528361061b565b7f6282190449f76f72a9f692e4d8619a03764b7253394788948e36a7a57ba4a00e90565b61077382826040516024018080602001836001600160a01b03168152602001828103825284818151815260200191508051906020019080838360005b8381101561089357818101518382015260200161087b565b50505050905090810190601f1680156108c05780820380516001836020036101000a031916815260200191505b5060408051601f198184030181529190526020810180516001600160e01b031663319af33360e01b179052935061095892505050565b600061090b836001600160a01b038416610979565b9392505050565b600061090b836001600160a01b038416610991565b600061090b836001600160a01b038416610a57565b6000610946610aa1565b600401546001600160a01b0316919050565b80516a636f6e736f6c652e6c6f67602083016000808483855afa5050505050565b60009081526001919091016020526040902054151590565b60008181526001830160205260408120548015610a4d57835460001980830191908101906000908790839081106109c457fe5b90600052602060002001549050808760000184815481106109e157fe5b600091825260208083209091019290925582815260018981019092526040902090840190558654879080610a1157fe5b6001900381819060005260206000200160009055905586600101600087815260200190815260200160002060009055600194505050505061056f565b600091505061056f565b6000610a638383610979565b610a995750815460018181018455600084815260208082209093018490558454848252828601909352604090209190915561056f565b50600061056f565b7fc8fcad8db84d3cc18b4c41d551ea0ee66dd599cde068d998e57d5e09332c131c9056fe9f2df0fed2c77648de5860a4cc508cd0818c85b8b8a1ab4ceeef8d981c8956a6a2646970667358221220c5fe8325747ae9ee897dd70c54b7dbc4ce3ed901dc882fd1710a09730f4e6b0964736f6c63430007040033",
  "devdoc": {
    "kind": "dev",
    "methods": {
      "addMinter(address)": {
        "params": {
          "_account": "Address of the account to give the minter role to."
        }
      },
      "getAddressByMinter(uint256)": {
        "details": "Different minter id's can map to the same address.",
        "params": {
          "_minter": "The index of the minter account."
        },
        "returns": {
          "_0": "Address of the minter for the given minter index in the minterToAddress storage."
        }
      },
      "getMinterByAddress(address)": {
        "params": {
          "_address": "The address of the minter account."
        },
        "returns": {
          "_0": "Index of the minter for a given address."
        }
      },
      "getOwner()": {
        "returns": {
          "_0": "address of the contract owner."
        }
      },
      "initializeRoles(address)": {
        "details": "Should be called right after deploying the contract. _owner will become minter, and role admin.",
        "params": {
          "_owner": "Address of the account that should own the contract."
        }
      },
      "isMinter(address)": {
        "params": {
          "_account": "Address of the account to check the minter role for."
        },
        "returns": {
          "_0": "if the given address bears the minter role."
        }
      },
      "isMinterRoleAdmin(address)": {
        "params": {
          "_account": "Address of the account to check the minter role admin account for."
        },
        "returns": {
          "_0": "if the given address is the minter role admin."
        }
      },
      "removeMinter(address)": {
        "params": {
          "_account": "Address of the account to revoke the minter role for."
        }
      },
      "upgradeAddress(address,address)": {
        "details": "Different minter id's can map to the same address.",
        "params": {
          "_newAddress": "The new address of the minter.",
          "_oldAddress": "The current address of the minter."
        }
      }
    },
    "version": 1
  },
  "userdoc": {
    "kind": "user",
    "methods": {
      "getAddressByMinter(uint256)": {
        "notice": "Upgrades an existing minter address to a new minter address, can only be called by the minter itself."
      },
      "upgradeAddress(address,address)": {
        "notice": "Upgrades an existing minter address to a new minter address, can only be called by the minter itself."
      }
    },
    "version": 1
  },
  "storageLayout": {
    "storage": [],
    "types": null
  }
}