{
  "address": "0xa4E84979c95cD4f12C53E73d63E0A8634A1f44Ae",
  "abi": [
    {
      "anonymous": false,
      "inputs": [
        {
          "indexed": false,
          "internalType": "address",
          "name": "token",
          "type": "address"
        },
        {
          "indexed": false,
          "internalType": "enum ITokenFactory.TokenType",
          "name": "tokenType",
          "type": "uint8"
        }
      ],
      "name": "TokenDeployed",
      "type": "event"
    },
    {
      "inputs": [
        {
          "internalType": "string",
          "name": "_name",
          "type": "string"
        },
        {
          "internalType": "string",
          "name": "_symbol",
          "type": "string"
        },
        {
          "internalType": "address",
          "name": "to",
          "type": "address"
        },
        {
          "internalType": "uint256",
          "name": "amount",
          "type": "uint256"
        }
      ],
      "name": "deployLimitedSupplyToken",
      "outputs": [],
      "stateMutability": "nonpayable",
      "type": "function"
    },
    {
      "inputs": [
        {
          "internalType": "string",
          "name": "_name",
          "type": "string"
        },
        {
          "internalType": "string",
          "name": "_symbol",
          "type": "string"
        },
        {
          "internalType": "address",
          "name": "_to",
          "type": "address"
        },
        {
          "internalType": "string",
          "name": "_baseURI",
          "type": "string"
        }
      ],
      "name": "deployNonFungibleToken",
      "outputs": [],
      "stateMutability": "nonpayable",
      "type": "function"
    },
    {
      "inputs": [
        {
          "internalType": "string",
          "name": "_name",
          "type": "string"
        },
        {
          "internalType": "string",
          "name": "_symbol",
          "type": "string"
        },
        {
          "internalType": "address[]",
          "name": "_minters",
          "type": "address[]"
        },
        {
          "internalType": "address",
          "name": "_admin",
          "type": "address"
        }
      ],
      "name": "deployUnlimitedSupplyToken",
      "outputs": [],
      "stateMutability": "nonpayable",
      "type": "function"
    }
  ],
  "transactionHash": "0x8a4166179e6cda932cfb96cb2d21d8696e6a71c861912985af814a323533dae6",
  "args": [],
  "numDeployments": 1,
  "solcInputHash": "04c49ca340ef48353ffaff92fa6578f2",
  "bytecode": "0x608060405234801561001057600080fd5b506153e6806100206000396000f3fe60806040523480156200001157600080fd5b5060043610620000465760003560e01c80631e05efea146200004b57806358bf05a514620000645780636d066b06146200007b575b600080fd5b620000626200005c3660046200033e565b62000092565b005b620000626200007536600462000461565b62000122565b620000626200008c366004620003df565b620001a3565b6200009c62000224565b600084848484604051620000b0906200028b565b620000bf9493929190620005e8565b604051809103906000f080158015620000dc573d6000803e3d6000fd5b5090507f5c0bdd573f1186139a66b523ab6e6ce1e2deb91d74e1b98c56ecac41c7627b0181600260405162000113929190620005c0565b60405180910390a15050505050565b6200012c62000224565b600084848484604051620001409062000299565b6200014f949392919062000687565b604051809103906000f0801580156200016c573d6000803e3d6000fd5b5090507f5c0bdd573f1186139a66b523ab6e6ce1e2deb91d74e1b98c56ecac41c7627b0181600160405162000113929190620005c0565b620001ad62000224565b600084848484604051620001c190620002a7565b620001d0949392919062000641565b604051809103906000f080158015620001ed573d6000803e3d6000fd5b5090507f5c0bdd573f1186139a66b523ab6e6ce1e2deb91d74e1b98c56ecac41c7627b0181600060405162000113929190620005c0565b6200022e62000267565b600401546001600160a01b03163314620002655760405162461bcd60e51b81526004016200025c9062000713565b60405180910390fd5b565b7fc8fcad8db84d3cc18b4c41d551ea0ee66dd599cde068d998e57d5e09332c131c90565b612e24806200077b83390190565b610fed806200359f83390190565b610e25806200458c83390190565b80356001600160a01b0381168114620002cd57600080fd5b919050565b600082601f830112620002e3578081fd5b813567ffffffffffffffff811115620002f857fe5b6200030d601f8201601f191660200162000755565b91508082528360208285010111156200032557600080fd5b8060208401602084013760009082016020015292915050565b6000806000806080858703121562000354578384fd5b843567ffffffffffffffff808211156200036c578586fd5b6200037a88838901620002d2565b9550602087013591508082111562000390578485fd5b6200039e88838901620002d2565b9450620003ae60408801620002b5565b93506060870135915080821115620003c4578283fd5b50620003d387828801620002d2565b91505092959194509250565b60008060008060808587031215620003f5578384fd5b843567ffffffffffffffff808211156200040d578586fd5b6200041b88838901620002d2565b9550602087013591508082111562000431578485fd5b506200044087828801620002d2565b9350506200045160408601620002b5565b9396929550929360600135925050565b6000806000806080858703121562000477578384fd5b843567ffffffffffffffff808211156200048f578586fd5b6200049d88838901620002d2565b9550602091508187013581811115620004b4578586fd5b620004c289828a01620002d2565b955050604087013581811115620004d7578485fd5b8701601f81018913620004e8578485fd5b803582811115620004f557fe5b83810292506200050784840162000755565b8181528481019083860185850187018d101562000522578889fd5b8895505b838610156200054f576200053a81620002b5565b83526001959095019491860191860162000526565b508097505050505050506200056760608601620002b5565b905092959194509250565b60008151808452815b8181101562000599576020818501810151868301820152016200057b565b81811115620005ab5782602083870101525b50601f01601f19169290920160200192915050565b6001600160a01b03831681526040810160038310620005db57fe5b8260208301529392505050565b600060808252620005fd608083018762000572565b828103602084015262000611818762000572565b6001600160a01b03861660408501528381036060850152905062000636818562000572565b979650505050505050565b60006080825262000656608083018762000572565b82810360208401526200066a818762000572565b6001600160a01b0395909516604084015250506060015292915050565b6000608082526200069c608083018762000572565b602083820381850152620006b1828862000572565b84810360408601528651808252828801935090820190845b81811015620006f05784516001600160a01b031683529383019391830191600101620006c9565b50506001600160a01b039590951660609490940193909352509195945050505050565b60208082526022908201527f4c69624469616d6f6e643a204d75737420626520636f6e7472616374206f776e60408201526132b960f11b606082015260800190565b60405181810167ffffffffffffffff811182821017156200077257fe5b60405291905056fe60806040523480156200001157600080fd5b5060405162002e2438038062002e24833981810160405260808110156200003757600080fd5b81019080805160405193929190846401000000008211156200005857600080fd5b9083019060208201858111156200006e57600080fd5b82516401000000008111828201881017156200008957600080fd5b82525081516020918201929091019080838360005b83811015620000b85781810151838201526020016200009e565b50505050905090810190601f168015620000e65780820380516001836020036101000a031916815260200191505b50604052602001805160405193929190846401000000008211156200010a57600080fd5b9083019060208201858111156200012057600080fd5b82516401000000008111828201881017156200013b57600080fd5b82525081516020918201929091019080838360005b838110156200016a57818101518382015260200162000150565b50505050905090810190601f168015620001985780820380516001836020036101000a031916815260200191505b50604081815260208301519201805192949193919284640100000000821115620001c157600080fd5b908301906020820185811115620001d757600080fd5b8251640100000000811182820188101715620001f257600080fd5b82525081516020918201929091019080838360005b838110156200022157818101518382015260200162000207565b50505050905090810190601f1680156200024f5780820380516001836020036101000a031916815260200191505b50604052508591508490506200026c6301ffc9a760e01b6200033a565b815162000281906006906020850190620004db565b50805162000297906007906020840190620004db565b50620002aa6380ac58cd60e01b6200033a565b620002bc635b5e139f60e01b6200033a565b620002ce63780e9d6360e01b6200033a565b5060009050620002dd620003bf565b600a80546001600160a01b0319166001600160a01b0383169081179091556040519192509060009060008051602062002e04833981519152908290a3506200032582620003c3565b6200033081620004c2565b5050505062000587565b6001600160e01b031980821614156200039a576040805162461bcd60e51b815260206004820152601c60248201527f4552433136353a20696e76616c696420696e7465726661636520696400000000604482015290519081900360640190fd5b6001600160e01b0319166000908152602081905260409020805460ff19166001179055565b3390565b620003cd620003bf565b600a546001600160a01b0390811691161462000430576040805162461bcd60e51b815260206004820181905260248201527f4f776e61626c653a2063616c6c6572206973206e6f7420746865206f776e6572604482015290519081900360640190fd5b6001600160a01b038116620004775760405162461bcd60e51b815260040180806020018281038252602681526020018062002dde6026913960400191505060405180910390fd5b600a546040516001600160a01b0380841692169060008051602062002e0483398151915290600090a3600a80546001600160a01b0319166001600160a01b0392909216919091179055565b8051620004d7906009906020840190620004db565b5050565b828054600181600116156101000203166002900490600052602060002090601f0160209004810192826200051357600085556200055e565b82601f106200052e57805160ff19168380011785556200055e565b828001600101855582156200055e579182015b828111156200055e57825182559160200191906001019062000541565b506200056c92915062000570565b5090565b5b808211156200056c576000815560010162000571565b61284780620005976000396000f3fe608060405234801561001057600080fd5b50600436106101da5760003560e01c8063715018a611610104578063a22cb465116100a2578063d0def52111610071578063d0def52114610652578063de6dd5cd14610708578063e985e9c51461072e578063f2fde38b1461075c576101da565b8063a22cb4651461051b578063aa271e1a14610549578063b88d4fde1461056f578063c87b56dd14610635576101da565b8063893d20e8116100de578063893d20e8146104dd5780638da5cb5b146104e557806395d89b41146104ed578063983b2d56146104f5576101da565b8063715018a6146104925780637dcf96701461049a57806382590a3f146104c0576101da565b80632f745c591161017c57806354208a2f1161014b57806354208a2f146104215780636352211e146104475780636c0360eb1461046457806370a082311461046c576101da565b80632f745c591461037c5780633092afd5146103a857806342842e0e146103ce5780634f6ccce714610404576101da565b8063095ea7b3116101b8578063095ea7b3146102d057806318160ddd146102fe57806323b872dd1461031857806327eef5661461034e576101da565b806301ffc9a7146101df57806306fdde031461021a578063081812fc14610297575b600080fd5b610206600480360360208110156101f557600080fd5b50356001600160e01b031916610782565b604080519115158252519081900360200190f35b6102226107a5565b6040805160208082528351818301528351919283929083019185019080838360005b8381101561025c578181015183820152602001610244565b50505050905090810190601f1680156102895780820380516001836020036101000a031916815260200191505b509250505060405180910390f35b6102b4600480360360208110156102ad57600080fd5b503561083b565b604080516001600160a01b039092168252519081900360200190f35b6102fc600480360360408110156102e657600080fd5b506001600160a01b03813516906020013561089d565b005b610306610978565b60408051918252519081900360200190f35b6102fc6004803603606081101561032e57600080fd5b506001600160a01b03813581169160208101359091169060400135610989565b6102fc6004803603604081101561036457600080fd5b506001600160a01b03813581169160200135166109e0565b6103066004803603604081101561039257600080fd5b506001600160a01b038135169060200135610b84565b6102fc600480360360208110156103be57600080fd5b50356001600160a01b0316610baf565b6102fc600480360360608110156103e457600080fd5b506001600160a01b03813581169160208101359091169060400135610c16565b6103066004803603602081101561041a57600080fd5b5035610c31565b6102fc6004803603602081101561043757600080fd5b50356001600160a01b0316610c47565b6102b46004803603602081101561045d57600080fd5b5035610cc3565b610222610ceb565b6103066004803603602081101561048257600080fd5b50356001600160a01b0316610d4c565b6102fc610db4565b610306600480360360208110156104b057600080fd5b50356001600160a01b0316610e68565b6102b4600480360360208110156104d657600080fd5b5035610e94565b6102b4610ebb565b6102b4610ec5565b610222610ed4565b6102fc6004803603602081101561050b57600080fd5b50356001600160a01b0316610f35565b6102fc6004803603604081101561053157600080fd5b506001600160a01b0381351690602001351515610f9d565b6102066004803603602081101561055f57600080fd5b50356001600160a01b03166110a2565b6102fc6004803603608081101561058557600080fd5b6001600160a01b038235811692602081013590911691604082013591908101906080810160608201356401000000008111156105c057600080fd5b8201836020820111156105d257600080fd5b803590602001918460018302840111640100000000831117156105f457600080fd5b91908080601f0160208091040260200160405190810160405280939291908181526020018383808284376000920191909152509295506110ad945050505050565b6102226004803603602081101561064b57600080fd5b503561110b565b6103066004803603604081101561066857600080fd5b6001600160a01b03823516919081019060408101602082013564010000000081111561069357600080fd5b8201836020820111156106a557600080fd5b803590602001918460018302840111640100000000831117156106c757600080fd5b91908080601f0160208091040260200160405190810160405280939291908181526020018383808284376000920191909152509295506113b2945050505050565b6102066004803603602081101561071e57600080fd5b50356001600160a01b031661144a565b6102066004803603604081101561074457600080fd5b506001600160a01b038135811691602001351661147f565b6102fc6004803603602081101561077257600080fd5b50356001600160a01b03166114ad565b6001600160e01b0319811660009081526020819052604090205460ff165b919050565b60068054604080516020601f60026000196101006001881615020190951694909404938401819004810282018101909252828152606093909290918301828280156108315780601f1061080657610100808354040283529160200191610831565b820191906000526020600020905b81548152906001019060200180831161081457829003601f168201915b5050505050905090565b6000610846826115b8565b6108815760405162461bcd60e51b815260040180806020018281038252602c8152602001806126f0602c913960400191505060405180910390fd5b506000908152600460205260409020546001600160a01b031690565b60006108a882610cc3565b9050806001600160a01b0316836001600160a01b031614156108fb5760405162461bcd60e51b81526004018080602001828103825260218152602001806127c06021913960400191505060405180910390fd5b806001600160a01b031661090d6115c5565b6001600160a01b0316148061092e575061092e816109296115c5565b61147f565b6109695760405162461bcd60e51b81526004018080602001828103825260388152602001806126436038913960400191505060405180910390fd5b61097383836115c9565b505050565b60006109846002611637565b905090565b61099a6109946115c5565b82611642565b6109d55760405162461bcd60e51b81526004018080602001828103825260318152602001806127e16031913960400191505060405180910390fd5b6109738383836116de565b6109e861182a565b6001600160a01b0316826001600160a01b031614610a3e576040805162461bcd60e51b815260206004820152600e60248201526d27a6222fa727aa2fa9a2a72222a960911b604482015290519081900360640190fd5b6000610a48611877565b6001600160a01b038416600090815260018201602052604090205490915080610aa5576040805162461bcd60e51b815260206004820152600a6024820152692727a72fa6a4a72a22a960b11b604482015290519081900360640190fd5b6001600160a01b03808516600090815260018401602090815260408083208390559286168083528383208590558483526002860190915291902080546001600160a01b0319169091179055610b086000805160206127a08339815191528561189b565b15610b3d57610b256000805160206127a0833981519152856118c4565b610b3d6000805160206127a08339815191528461193e565b826001600160a01b0316846001600160a01b0316827fe1c9adcbd183f05ebb44558de548b79f313563c28a222f94dd6492d9ce9a1d7f60405160405180910390a450505050565b6001600160a01b0382166000908152600160205260408120610ba690836119b8565b90505b92915050565b610bc16000610bbc61182a565b61189b565b610bfb576040805162461bcd60e51b815260206004820152600660248201526541434345535360d01b604482015290519081900360640190fd5b610c136000805160206127a0833981519152826118c4565b50565b610973838383604051806020016040528060008152506110ad565b600080610c3f6002846119c4565b509392505050565b610c4f611877565b5415610c8b576040805162461bcd60e51b815260206004808301919091526024820152631253925560e21b604482015290519081900360640190fd5b6103e8610c96611877565b55610ca26000826119e0565b610cba6000805160206127a0833981519152826119e0565b610c13816119ee565b6000610ba9826040518060600160405280602981526020016126a56029913960029190611a6e565b60098054604080516020601f60026000196101006001881615020190951694909404938401819004810282018101909252828152606093909290918301828280156108315780601f1061080657610100808354040283529160200191610831565b60006001600160a01b038216610d935760405162461bcd60e51b815260040180806020018281038252602a81526020018061267b602a913960400191505060405180910390fd5b6001600160a01b0382166000908152600160205260409020610ba990611637565b610dbc6115c5565b600a546001600160a01b03908116911614610e1e576040805162461bcd60e51b815260206004820181905260248201527f4f776e61626c653a2063616c6c6572206973206e6f7420746865206f776e6572604482015290519081900360640190fd5b600a546040516000916001600160a01b0316907f8be0079c531659141344cd1fd0a4f28419497f9722a3daafe3b4186f6b6457e0908390a3600a80546001600160a01b0319169055565b6000610e72611877565b6001600160a01b03929092166000908152600190920160205250604090205490565b6000610e9e611877565b60009283526002016020525060409020546001600160a01b031690565b6000610984611a85565b600a546001600160a01b031690565b60078054604080516020601f60026000196101006001881615020190951694909404938401819004810282018101909252828152606093909290918301828280156108315780601f1061080657610100808354040283529160200191610831565b610f426000610bbc61182a565b610f7c576040805162461bcd60e51b815260206004820152600660248201526541434345535360d01b604482015290519081900360640190fd5b610f85816119ee565b610c136000805160206127a08339815191528261193e565b610fa56115c5565b6001600160a01b0316826001600160a01b0316141561100b576040805162461bcd60e51b815260206004820152601960248201527f4552433732313a20617070726f766520746f2063616c6c657200000000000000604482015290519081900360640190fd5b80600560006110186115c5565b6001600160a01b03908116825260208083019390935260409182016000908120918716808252919093529120805460ff19169215159290921790915561105c6115c5565b6001600160a01b03167f17307eab39ab6107e8899845ad3d59bd9653f200f220920489ca2b5937696c318360405180821515815260200191505060405180910390a35050565b6000610ba982611a8f565b6110be6110b86115c5565b83611642565b6110f95760405162461bcd60e51b81526004018080602001828103825260318152602001806127e16031913960400191505060405180910390fd5b61110584848484611aa9565b50505050565b6060611116826115b8565b6111515760405162461bcd60e51b815260040180806020018281038252602f815260200180612771602f913960400191505060405180910390fd5b60008281526008602090815260409182902080548351601f60026000196101006001861615020190931692909204918201849004840281018401909452808452606093928301828280156111e65780601f106111bb576101008083540402835291602001916111e6565b820191906000526020600020905b8154815290600101906020018083116111c957829003601f168201915b50506009549394505050506002600019610100600184161502019091160461120f5790506107a0565b8051156112e05760098160405160200180838054600181600116156101000203166002900480156112775780601f10611255576101008083540402835291820191611277565b820191906000526020600020905b815481529060010190602001808311611263575b5050825160208401908083835b602083106112a35780518252601f199092019160209182019101611284565b6001836020036101000a038019825116818451168082178552505050505050905001925050506040516020818303038152906040529150506107a0565b60096112eb84611afb565b60405160200180838054600181600116156101000203166002900480156113495780601f10611327576101008083540402835291820191611349565b820191906000526020600020905b815481529060010190602001808311611335575b5050825160208401908083835b602083106113755780518252601f199092019160209182019101611356565b6001836020036101000a03801982511681845116808217855250505050505090500192505050604051602081830303815290604052915050919050565b60006113ce6000805160206127a0833981519152610bbc61182a565b61140c576040805162461bcd60e51b815260206004820152600a6024820152692727aa2fa6a4a72a22a960b11b604482015290519081900360640190fd5b6000611416611bd6565b905061142181611bfa565b600061142c82611c03565b90506114388582611c07565b6114428185611d35565b949350505050565b6000610ba9611457611d98565b6000805160206127a0833981519152600090815260209190915260409020600401548361189b565b6001600160a01b03918216600090815260056020908152604080832093909416825291909152205460ff1690565b6114b56115c5565b600a546001600160a01b03908116911614611517576040805162461bcd60e51b815260206004820181905260248201527f4f776e61626c653a2063616c6c6572206973206e6f7420746865206f776e6572604482015290519081900360640190fd5b6001600160a01b03811661155c5760405162461bcd60e51b81526004018080602001828103825260268152602001806125cd6026913960400191505060405180910390fd5b600a546040516001600160a01b038084169216907f8be0079c531659141344cd1fd0a4f28419497f9722a3daafe3b4186f6b6457e090600090a3600a80546001600160a01b0319166001600160a01b0392909216919091179055565b6000610ba9600283611dbc565b3390565b600081815260046020526040902080546001600160a01b0319166001600160a01b03841690811790915581906115fe82610cc3565b6001600160a01b03167f8c5be1e5ebec7d5bd14f71427d1e84f3dd0314c0f7b2291e5b200ac8c7c3b92560405160405180910390a45050565b6000610ba982611c03565b600061164d826115b8565b6116885760405162461bcd60e51b815260040180806020018281038252602c815260200180612617602c913960400191505060405180910390fd5b600061169383610cc3565b9050806001600160a01b0316846001600160a01b031614806116ce5750836001600160a01b03166116c38461083b565b6001600160a01b0316145b806114425750611442818561147f565b826001600160a01b03166116f182610cc3565b6001600160a01b0316146117365760405162461bcd60e51b81526004018080602001828103825260298152602001806127486029913960400191505060405180910390fd5b6001600160a01b03821661177b5760405162461bcd60e51b81526004018080602001828103825260248152602001806125f36024913960400191505060405180910390fd5b611786838383610973565b6117916000826115c9565b6001600160a01b03831660009081526001602052604090206117b39082611dc8565b506001600160a01b03821660009081526001602052604090206117d69082611dd4565b506117e360028284611de0565b5080826001600160a01b0316846001600160a01b03167fddf252ad1be2c89b69c2b068fc378daa952ba7f163c4a11628f55a4df523b3ef60405160405180910390a4505050565b600060606000368080601f0160208091040260200160405190810160405280939291908181526020018383808284376000920191909152505050503601516001600160a01b031692915050565b7fe7885577c160bde88cf1708f56c732f0d5e3fd8cf2c2202e63ff602dd6f813ff90565b6000806118a6611d98565b60008581526020829052604090209091506114429060020184611df6565b60006118ce611d98565b60008481526020829052604090209091506118ec9060020183611e0b565b15610973576118f961182a565b6001600160a01b0316826001600160a01b0316847ff6391f5c32d9c69d2a47ea670b442974b53935d1edc7fd64eb21e047a839171b60405160405180910390a4505050565b6000611948611d98565b60008481526020829052604090209091506119669060020183611e20565b156109735761197361182a565b6001600160a01b0316826001600160a01b0316847f2f8788117e7eff1d82e926ec794901d17c78024a50270940304540a733656f0d60405160405180910390a4505050565b6000610ba68383611e35565b60008080806119d38686611e99565b9097909650945050505050565b6119ea828261193e565b5050565b60006119f8611877565b6001600160a01b03831660009081526001820160205260409020549091508015611a23575050610c13565b50805460019081018083556001600160a01b0384166000818152928401602090815260408085208490559284526002909401909352902080546001600160a01b031916909117905550565b6000611a7b848484611f14565b90505b9392505050565b6000610984611fde565b6000610ba96000805160206127a08339815191528361189b565b611ab48484846116de565b611ac084848484611ffa565b6111055760405162461bcd60e51b815260040180806020018281038252603281526020018061259b6032913960400191505060405180910390fd5b606081611b2057506040805180820190915260018152600360fc1b60208201526107a0565b8160005b8115611b3857600101600a82049150611b24565b60608167ffffffffffffffff81118015611b5157600080fd5b506040519080825280601f01601f191660200182016040528015611b7c576020820181803683370190505b50859350905060001982015b8315611bcd57600a840660300160f81b82828060019003935081518110611bab57fe5b60200101906001600160f81b031916908160001a905350600a84049350611b88565b50949350505050565b7fff6c818e8ce86df46f8ea37eeb0072e4ec01165c0f46be6e2d73c9c07e24a7a490565b80546001019055565b5490565b6001600160a01b038216611c62576040805162461bcd60e51b815260206004820181905260248201527f4552433732313a206d696e7420746f20746865207a65726f2061646472657373604482015290519081900360640190fd5b611c6b816115b8565b15611cbd576040805162461bcd60e51b815260206004820152601c60248201527f4552433732313a20746f6b656e20616c7265616479206d696e74656400000000604482015290519081900360640190fd5b611cc960008383610973565b6001600160a01b0382166000908152600160205260409020611ceb9082611dd4565b50611cf860028284611de0565b5060405181906001600160a01b038416906000907fddf252ad1be2c89b69c2b068fc378daa952ba7f163c4a11628f55a4df523b3ef908290a45050565b611d3e826115b8565b611d795760405162461bcd60e51b815260040180806020018281038252602c81526020018061271c602c913960400191505060405180910390fd5b60008281526008602090815260409091208251610973928401906124d7565b7f6282190449f76f72a9f692e4d8619a03764b7253394788948e36a7a57ba4a00e90565b6000610ba68383612162565b6000610ba6838361217a565b6000610ba68383612240565b6000611a7b84846001600160a01b03851661228a565b6000610ba6836001600160a01b038416612162565b6000610ba6836001600160a01b03841661217a565b6000610ba6836001600160a01b038416612240565b81546000908210611e775760405162461bcd60e51b81526004018080602001828103825260228152602001806125796022913960400191505060405180910390fd5b826000018281548110611e8657fe5b9060005260206000200154905092915050565b815460009081908310611edd5760405162461bcd60e51b81526004018080602001828103825260228152602001806126ce6022913960400191505060405180910390fd5b6000846000018481548110611eee57fe5b906000526020600020906002020190508060000154816001015492509250509250929050565b60008281526001840160205260408120548281611faf5760405162461bcd60e51b81526004018080602001828103825283818151815260200191508051906020019080838360005b83811015611f74578181015183820152602001611f5c565b50505050905090810190601f168015611fa15780820380516001836020036101000a031916815260200191505b509250505060405180910390fd5b50846000016001820381548110611fc257fe5b9060005260206000209060020201600101549150509392505050565b6000611fe8612321565b600401546001600160a01b0316919050565b600061200e846001600160a01b0316612345565b61201a57506001611442565b6060612128630a85bd0160e11b61202f6115c5565b88878760405160240180856001600160a01b03168152602001846001600160a01b0316815260200183815260200180602001828103825283818151815260200191508051906020019080838360005b8381101561209657818101518382015260200161207e565b50505050905090810190601f1680156120c35780820380516001836020036101000a031916815260200191505b5095505050505050604051602081830303815290604052906001600160e01b0319166020820180516001600160e01b03838183161783525050505060405180606001604052806032815260200161259b603291396001600160a01b038816919061234b565b9050600081806020019051602081101561214157600080fd5b50516001600160e01b031916630a85bd0160e11b1492505050949350505050565b60009081526001919091016020526040902054151590565b6000818152600183016020526040812054801561223657835460001980830191908101906000908790839081106121ad57fe5b90600052602060002001549050808760000184815481106121ca57fe5b6000918252602080832090910192909255828152600189810190925260409020908401905586548790806121fa57fe5b60019003818190600052602060002001600090559055866001016000878152602001908152602001600020600090556001945050505050610ba9565b6000915050610ba9565b600061224c8383612162565b61228257508154600181810184556000848152602080822090930184905584548482528286019093526040902091909155610ba9565b506000610ba9565b6000828152600184016020526040812054806122ef575050604080518082018252838152602080820184815286546001818101895560008981528481209551600290930290950191825591519082015586548684528188019092529290912055611a7e565b8285600001600183038154811061230257fe5b9060005260206000209060020201600101819055506000915050611a7e565b7fc8fcad8db84d3cc18b4c41d551ea0ee66dd599cde068d998e57d5e09332c131c90565b3b151590565b6060611a7b84846000858561235f85612345565b6123b0576040805162461bcd60e51b815260206004820152601d60248201527f416464726573733a2063616c6c20746f206e6f6e2d636f6e7472616374000000604482015290519081900360640190fd5b60006060866001600160a01b031685876040518082805190602001908083835b602083106123ef5780518252601f1990920191602091820191016123d0565b6001836020036101000a03801982511681845116808217855250505050505090500191505060006040518083038185875af1925050503d8060008114612451576040519150601f19603f3d011682016040523d82523d6000602084013e612456565b606091505b5091509150612466828286612471565b979650505050505050565b60608315612480575081611a7e565b8251156124905782518084602001fd5b60405162461bcd60e51b8152602060048201818152845160248401528451859391928392604401919085019080838360008315611f74578181015183820152602001611f5c565b828054600181600116156101000203166002900490600052602060002090601f01602090048101928261250d5760008555612553565b82601f1061252657805160ff1916838001178555612553565b82800160010185558215612553579182015b82811115612553578251825591602001919060010190612538565b5061255f929150612563565b5090565b5b8082111561255f576000815560010161256456fe456e756d657261626c655365743a20696e646578206f7574206f6620626f756e64734552433732313a207472616e7366657220746f206e6f6e20455243373231526563656976657220696d706c656d656e7465724f776e61626c653a206e6577206f776e657220697320746865207a65726f20616464726573734552433732313a207472616e7366657220746f20746865207a65726f20616464726573734552433732313a206f70657261746f7220717565727920666f72206e6f6e6578697374656e7420746f6b656e4552433732313a20617070726f76652063616c6c6572206973206e6f74206f776e6572206e6f7220617070726f76656420666f7220616c6c4552433732313a2062616c616e636520717565727920666f7220746865207a65726f20616464726573734552433732313a206f776e657220717565727920666f72206e6f6e6578697374656e7420746f6b656e456e756d657261626c654d61703a20696e646578206f7574206f6620626f756e64734552433732313a20617070726f76656420717565727920666f72206e6f6e6578697374656e7420746f6b656e4552433732314d657461646174613a2055524920736574206f66206e6f6e6578697374656e7420746f6b656e4552433732313a207472616e73666572206f6620746f6b656e2074686174206973206e6f74206f776e4552433732314d657461646174613a2055524920717565727920666f72206e6f6e6578697374656e7420746f6b656e9f2df0fed2c77648de5860a4cc508cd0818c85b8b8a1ab4ceeef8d981c8956a64552433732313a20617070726f76616c20746f2063757272656e74206f776e65724552433732313a207472616e736665722063616c6c6572206973206e6f74206f776e6572206e6f7220617070726f766564a26469706673582212200182c56448c3245220eda5346e03f48b9d5dec2443d7a97e49657bcd0dc7048d64736f6c634300070400334f776e61626c653a206e6577206f776e657220697320746865207a65726f20616464726573738be0079c531659141344cd1fd0a4f28419497f9722a3daafe3b4186f6b6457e060806040523480156200001157600080fd5b5060405162000fed38038062000fed833981810160405260808110156200003757600080fd5b81019080805160405193929190846401000000008211156200005857600080fd5b9083019060208201858111156200006e57600080fd5b82516401000000008111828201881017156200008957600080fd5b82525081516020918201929091019080838360005b83811015620000b85781810151838201526020016200009e565b50505050905090810190601f168015620000e65780820380516001836020036101000a031916815260200191505b50604052602001805160405193929190846401000000008211156200010a57600080fd5b9083019060208201858111156200012057600080fd5b82516401000000008111828201881017156200013b57600080fd5b82525081516020918201929091019080838360005b838110156200016a57818101518382015260200162000150565b50505050905090810190601f168015620001985780820380516001836020036101000a031916815260200191505b5060405260200180516040519392919084640100000000821115620001bc57600080fd5b908301906020820185811115620001d257600080fd5b8251866020820283011164010000000082111715620001f057600080fd5b82525081516020918201928201910280838360005b838110156200021f57818101518382015260200162000205565b505050509190910160405250602090810151865190935086925085916200024c91600391850190620003ed565b50805162000262906004906020840190620003ed565b50506005805460ff19166012179055506001600160a01b038116620002c0576040805162461bcd60e51b815260206004820152600f60248201526e494e56414c49445f4144445245535360881b604482015290519081900360640190fd5b6000620002d7620003c960201b620005731760201c565b6001810180546001600160a01b0319166001600160a01b038516179055905060005b8351811015620003bd5760006001600160a01b03168482815181106200031b57fe5b60200260200101516001600160a01b031614156200036d576040805162461bcd60e51b815260206004820152600a6024820152692727aa2fa6a4a72a22a960b11b604482015290519081900360640190fd5b60018260000160008684815181106200038257fe5b6020908102919091018101516001600160a01b03168252810191909152604001600020805460ff1916911515919091179055600101620002f9565b50505050505062000499565b7fae7545d726273ce5eb6edfba49e475fe6cf29b7bf5685f03a8e58780fe45c20590565b828054600181600116156101000203166002900490600052602060002090601f01602090048101928262000425576000855562000470565b82601f106200044057805160ff191683800117855562000470565b8280016001018555821562000470579182015b828111156200047057825182559160200191906001019062000453565b506200047e92915062000482565b5090565b5b808211156200047e576000815560010162000483565b610b4480620004a96000396000f3fe608060405234801561001057600080fd5b50600436106100a95760003560e01c8063395093511161007157806339509351146101d957806370a082311461020557806395d89b411461022b578063a457c2d714610233578063a9059cbb1461025f578063dd62ed3e1461028b576100a9565b806306fdde03146100ae578063095ea7b31461012b57806318160ddd1461016b57806323b872dd14610185578063313ce567146101bb575b600080fd5b6100b66102b9565b6040805160208082528351818301528351919283929083019185019080838360005b838110156100f05781810151838201526020016100d8565b50505050905090810190601f16801561011d5780820380516001836020036101000a031916815260200191505b509250505060405180910390f35b6101576004803603604081101561014157600080fd5b506001600160a01b03813516906020013561034f565b604080519115158252519081900360200190f35b61017361036c565b60408051918252519081900360200190f35b6101576004803603606081101561019b57600080fd5b506001600160a01b03813581169160208101359091169060400135610372565b6101c36103f9565b6040805160ff9092168252519081900360200190f35b610157600480360360408110156101ef57600080fd5b506001600160a01b038135169060200135610402565b6101736004803603602081101561021b57600080fd5b50356001600160a01b0316610450565b6100b661046b565b6101576004803603604081101561024957600080fd5b506001600160a01b0381351690602001356104cc565b6101576004803603604081101561027557600080fd5b506001600160a01b038135169060200135610534565b610173600480360360408110156102a157600080fd5b506001600160a01b0381358116916020013516610548565b60038054604080516020601f60026000196101006001881615020190951694909404938401819004810282018101909252828152606093909290918301828280156103455780601f1061031a57610100808354040283529160200191610345565b820191906000526020600020905b81548152906001019060200180831161032857829003601f168201915b5050505050905090565b600061036361035c610597565b848461059b565b50600192915050565b60025490565b600061037f848484610687565b6103ef8461038b610597565b6103ea85604051806060016040528060288152602001610a79602891396001600160a01b038a166000908152600160205260408120906103c9610597565b6001600160a01b0316815260208101919091526040016000205491906107e2565b61059b565b5060019392505050565b60055460ff1690565b600061036361040f610597565b846103ea8560016000610420610597565b6001600160a01b03908116825260208083019390935260409182016000908120918c168152925290205490610879565b6001600160a01b031660009081526020819052604090205490565b60048054604080516020601f60026000196101006001881615020190951694909404938401819004810282018101909252828152606093909290918301828280156103455780601f1061031a57610100808354040283529160200191610345565b60006103636104d9610597565b846103ea85604051806060016040528060258152602001610aea6025913960016000610503610597565b6001600160a01b03908116825260208083019390935260409182016000908120918d168152925290205491906107e2565b6000610363610541610597565b8484610687565b6001600160a01b03918216600090815260016020908152604080832093909416825291909152205490565b7fae7545d726273ce5eb6edfba49e475fe6cf29b7bf5685f03a8e58780fe45c20590565b3390565b6001600160a01b0383166105e05760405162461bcd60e51b8152600401808060200182810382526024815260200180610ac66024913960400191505060405180910390fd5b6001600160a01b0382166106255760405162461bcd60e51b8152600401808060200182810382526022815260200180610a316022913960400191505060405180910390fd5b6001600160a01b03808416600081815260016020908152604080832094871680845294825291829020859055815185815291517f8c5be1e5ebec7d5bd14f71427d1e84f3dd0314c0f7b2291e5b200ac8c7c3b9259281900390910190a3505050565b6001600160a01b0383166106cc5760405162461bcd60e51b8152600401808060200182810382526025815260200180610aa16025913960400191505060405180910390fd5b6001600160a01b0382166107115760405162461bcd60e51b8152600401808060200182810382526023815260200180610a0e6023913960400191505060405180910390fd5b61071c8383836108da565b61075981604051806060016040528060268152602001610a53602691396001600160a01b03861660009081526020819052604090205491906107e2565b6001600160a01b0380851660009081526020819052604080822093909355908416815220546107889082610879565b6001600160a01b038084166000818152602081815260409182902094909455805185815290519193928716927fddf252ad1be2c89b69c2b068fc378daa952ba7f163c4a11628f55a4df523b3ef92918290030190a3505050565b600081848411156108715760405162461bcd60e51b81526004018080602001828103825283818151815260200191508051906020019080838360005b8381101561083657818101518382015260200161081e565b50505050905090810190601f1680156108635780820380516001836020036101000a031916815260200191505b509250505060405180910390fd5b505050900390565b6000828201838110156108d3576040805162461bcd60e51b815260206004820152601b60248201527f536166654d6174683a206164646974696f6e206f766572666c6f770000000000604482015290519081900360640190fd5b9392505050565b60006108e4610573565b6001600160a01b03851660009081526020829052604090205490915060ff1615156001141561091757610917848361091d565b50505050565b6001600160a01b038216610978576040805162461bcd60e51b815260206004820152601f60248201527f45524332303a206d696e7420746f20746865207a65726f206164647265737300604482015290519081900360640190fd5b610984600083836108da565b6002546109919082610879565b6002556001600160a01b0382166000908152602081905260409020546109b79082610879565b6001600160a01b0383166000818152602081815260408083209490945583518581529351929391927fddf252ad1be2c89b69c2b068fc378daa952ba7f163c4a11628f55a4df523b3ef9281900390910190a3505056fe45524332303a207472616e7366657220746f20746865207a65726f206164647265737345524332303a20617070726f766520746f20746865207a65726f206164647265737345524332303a207472616e7366657220616d6f756e7420657863656564732062616c616e636545524332303a207472616e7366657220616d6f756e74206578636565647320616c6c6f77616e636545524332303a207472616e736665722066726f6d20746865207a65726f206164647265737345524332303a20617070726f76652066726f6d20746865207a65726f206164647265737345524332303a2064656372656173656420616c6c6f77616e63652062656c6f77207a65726fa26469706673582212203ec04a3853b949942112f5b2af4b5406def875fad507546809ee84c0c013c5cb64736f6c6343000704003360806040523480156200001157600080fd5b5060405162000e2538038062000e25833981810160405260808110156200003757600080fd5b81019080805160405193929190846401000000008211156200005857600080fd5b9083019060208201858111156200006e57600080fd5b82516401000000008111828201881017156200008957600080fd5b82525081516020918201929091019080838360005b83811015620000b85781810151838201526020016200009e565b50505050905090810190601f168015620000e65780820380516001836020036101000a031916815260200191505b50604052602001805160405193929190846401000000008211156200010a57600080fd5b9083019060208201858111156200012057600080fd5b82516401000000008111828201881017156200013b57600080fd5b82525081516020918201929091019080838360005b838110156200016a57818101518382015260200162000150565b50505050905090810190601f168015620001985780820380516001836020036101000a031916815260200191505b50604090815260208281015192909101518651929450925085918591620001c59160039185019062000377565b508051620001db90600490602084019062000377565b50506005805460ff1916601217905550620001f7828262000201565b5050505062000423565b6001600160a01b0382166200025d576040805162461bcd60e51b815260206004820152601f60248201527f45524332303a206d696e7420746f20746865207a65726f206164647265737300604482015290519081900360640190fd5b6200026b6000838362000310565b62000287816002546200031560201b620005731790919060201c565b6002556001600160a01b03821660009081526020818152604090912054620002ba9183906200057362000315821b17901c565b6001600160a01b0383166000818152602081815260408083209490945583518581529351929391927fddf252ad1be2c89b69c2b068fc378daa952ba7f163c4a11628f55a4df523b3ef9281900390910190a35050565b505050565b60008282018381101562000370576040805162461bcd60e51b815260206004820152601b60248201527f536166654d6174683a206164646974696f6e206f766572666c6f770000000000604482015290519081900360640190fd5b9392505050565b828054600181600116156101000203166002900490600052602060002090601f016020900481019282620003af5760008555620003fa565b82601f10620003ca57805160ff1916838001178555620003fa565b82800160010185558215620003fa579182015b82811115620003fa578251825591602001919060010190620003dd565b50620004089291506200040c565b5090565b5b808211156200040857600081556001016200040d565b6109f280620004336000396000f3fe608060405234801561001057600080fd5b50600436106100a95760003560e01c8063395093511161007157806339509351146101d957806370a082311461020557806395d89b411461022b578063a457c2d714610233578063a9059cbb1461025f578063dd62ed3e1461028b576100a9565b806306fdde03146100ae578063095ea7b31461012b57806318160ddd1461016b57806323b872dd14610185578063313ce567146101bb575b600080fd5b6100b66102b9565b6040805160208082528351818301528351919283929083019185019080838360005b838110156100f05781810151838201526020016100d8565b50505050905090810190601f16801561011d5780820380516001836020036101000a031916815260200191505b509250505060405180910390f35b6101576004803603604081101561014157600080fd5b506001600160a01b03813516906020013561034f565b604080519115158252519081900360200190f35b61017361036c565b60408051918252519081900360200190f35b6101576004803603606081101561019b57600080fd5b506001600160a01b03813581169160208101359091169060400135610372565b6101c36103f9565b6040805160ff9092168252519081900360200190f35b610157600480360360408110156101ef57600080fd5b506001600160a01b038135169060200135610402565b6101736004803603602081101561021b57600080fd5b50356001600160a01b0316610450565b6100b661046b565b6101576004803603604081101561024957600080fd5b506001600160a01b0381351690602001356104cc565b6101576004803603604081101561027557600080fd5b506001600160a01b038135169060200135610534565b610173600480360360408110156102a157600080fd5b506001600160a01b0381358116916020013516610548565b60038054604080516020601f60026000196101006001881615020190951694909404938401819004810282018101909252828152606093909290918301828280156103455780601f1061031a57610100808354040283529160200191610345565b820191906000526020600020905b81548152906001019060200180831161032857829003601f168201915b5050505050905090565b600061036361035c6105d4565b84846105d8565b50600192915050565b60025490565b600061037f8484846106c4565b6103ef8461038b6105d4565b6103ea85604051806060016040528060288152602001610927602891396001600160a01b038a166000908152600160205260408120906103c96105d4565b6001600160a01b03168152602081019190915260400160002054919061081f565b6105d8565b5060019392505050565b60055460ff1690565b600061036361040f6105d4565b846103ea85600160006104206105d4565b6001600160a01b03908116825260208083019390935260409182016000908120918c168152925290205490610573565b6001600160a01b031660009081526020819052604090205490565b60048054604080516020601f60026000196101006001881615020190951694909404938401819004810282018101909252828152606093909290918301828280156103455780601f1061031a57610100808354040283529160200191610345565b60006103636104d96105d4565b846103ea8560405180606001604052806025815260200161099860259139600160006105036105d4565b6001600160a01b03908116825260208083019390935260409182016000908120918d1681529252902054919061081f565b60006103636105416105d4565b84846106c4565b6001600160a01b03918216600090815260016020908152604080832093909416825291909152205490565b6000828201838110156105cd576040805162461bcd60e51b815260206004820152601b60248201527f536166654d6174683a206164646974696f6e206f766572666c6f770000000000604482015290519081900360640190fd5b9392505050565b3390565b6001600160a01b03831661061d5760405162461bcd60e51b81526004018080602001828103825260248152602001806109746024913960400191505060405180910390fd5b6001600160a01b0382166106625760405162461bcd60e51b81526004018080602001828103825260228152602001806108df6022913960400191505060405180910390fd5b6001600160a01b03808416600081815260016020908152604080832094871680845294825291829020859055815185815291517f8c5be1e5ebec7d5bd14f71427d1e84f3dd0314c0f7b2291e5b200ac8c7c3b9259281900390910190a3505050565b6001600160a01b0383166107095760405162461bcd60e51b815260040180806020018281038252602581526020018061094f6025913960400191505060405180910390fd5b6001600160a01b03821661074e5760405162461bcd60e51b81526004018080602001828103825260238152602001806108bc6023913960400191505060405180910390fd5b6107598383836108b6565b61079681604051806060016040528060268152602001610901602691396001600160a01b038616600090815260208190526040902054919061081f565b6001600160a01b0380851660009081526020819052604080822093909355908416815220546107c59082610573565b6001600160a01b038084166000818152602081815260409182902094909455805185815290519193928716927fddf252ad1be2c89b69c2b068fc378daa952ba7f163c4a11628f55a4df523b3ef92918290030190a3505050565b600081848411156108ae5760405162461bcd60e51b81526004018080602001828103825283818151815260200191508051906020019080838360005b8381101561087357818101518382015260200161085b565b50505050905090810190601f1680156108a05780820380516001836020036101000a031916815260200191505b509250505060405180910390fd5b505050900390565b50505056fe45524332303a207472616e7366657220746f20746865207a65726f206164647265737345524332303a20617070726f766520746f20746865207a65726f206164647265737345524332303a207472616e7366657220616d6f756e7420657863656564732062616c616e636545524332303a207472616e7366657220616d6f756e74206578636565647320616c6c6f77616e636545524332303a207472616e736665722066726f6d20746865207a65726f206164647265737345524332303a20617070726f76652066726f6d20746865207a65726f206164647265737345524332303a2064656372656173656420616c6c6f77616e63652062656c6f77207a65726fa2646970667358221220dbac8520d623673d467c7cc1b77ba61c59670835314944558115413b8ab50a4564736f6c63430007040033a264697066735822122011d5c572d00da4506da0eb3a906d2d82511541a7ca4fb9dc8c54243b99d9509b64736f6c63430007040033",
  "devdoc": {
    "kind": "dev",
    "methods": {
      "deployLimitedSupplyToken(string,string,address,uint256)": {
        "params": {
          "_name": "string Token name.",
          "_symbol": "string Token symbol.",
          "amount": "uint256 Total supply of this token.",
          "to": "address Address the total supply will be minted to."
        }
      },
      "deployNonFungibleToken(string,string,address,string)": {
        "params": {
          "_name": "string Token name.",
          "_symbol": "string Token symbol.",
          "_to": "address Address the total supply will be minted to."
        }
      },
      "deployUnlimitedSupplyToken(string,string,address[],address)": {
        "params": {
          "_admin": "address Addres which is allowed to transfer tokens which are minted on the fly.",
          "_minters": "address[] List if address that able to mint new tokens",
          "_name": "string Token name.",
          "_symbol": "string Token symbol."
        }
      }
    },
    "version": 1
  },
  "userdoc": {
    "kind": "user",
    "methods": {},
    "version": 1
  },
  "storageLayout": {
    "storage": [],
    "types": null
  }
}