{
  "address": "0x0364D1d7777960B2A89C2c99264f869B08267C9C",
  "abi": [
    {
      "anonymous": false,
      "inputs": [
        {
          "indexed": false,
          "internalType": "address",
          "name": "recipient",
          "type": "address"
        },
        {
          "indexed": false,
          "internalType": "uint256",
          "name": "tokenId",
          "type": "uint256"
        }
      ],
      "name": "ERC721Minted",
      "type": "event"
    },
    {
      "anonymous": false,
      "inputs": [
        {
          "indexed": false,
          "internalType": "address",
          "name": "old",
          "type": "address"
        },
        {
          "indexed": false,
          "internalType": "address",
          "name": "current",
          "type": "address"
        }
      ],
      "name": "ERC721Updated",
      "type": "event"
    },
    {
      "anonymous": false,
      "inputs": [
        {
          "indexed": true,
          "internalType": "bytes32",
          "name": "role",
          "type": "bytes32"
        },
        {
          "indexed": true,
          "internalType": "bytes32",
          "name": "previousAdminRole",
          "type": "bytes32"
        },
        {
          "indexed": true,
          "internalType": "bytes32",
          "name": "newAdminRole",
          "type": "bytes32"
        }
      ],
      "name": "RoleAdminChanged",
      "type": "event"
    },
    {
      "anonymous": false,
      "inputs": [
        {
          "indexed": true,
          "internalType": "bytes32",
          "name": "role",
          "type": "bytes32"
        },
        {
          "indexed": true,
          "internalType": "address",
          "name": "account",
          "type": "address"
        },
        {
          "indexed": true,
          "internalType": "address",
          "name": "sender",
          "type": "address"
        }
      ],
      "name": "RoleGranted",
      "type": "event"
    },
    {
      "anonymous": false,
      "inputs": [
        {
          "indexed": true,
          "internalType": "bytes32",
          "name": "role",
          "type": "bytes32"
        },
        {
          "indexed": true,
          "internalType": "address",
          "name": "account",
          "type": "address"
        },
        {
          "indexed": true,
          "internalType": "address",
          "name": "sender",
          "type": "address"
        }
      ],
      "name": "RoleRevoked",
      "type": "event"
    },
    {
      "inputs": [],
      "name": "getERC721",
      "outputs": [
        {
          "internalType": "address",
          "name": "",
          "type": "address"
        }
      ],
      "stateMutability": "view",
      "type": "function"
    },
    {
      "inputs": [
        {
          "internalType": "address",
          "name": "_recipient",
          "type": "address"
        },
        {
          "internalType": "string",
          "name": "_tokenUri",
          "type": "string"
        }
      ],
      "name": "mintFor",
      "outputs": [],
      "stateMutability": "nonpayable",
      "type": "function"
    },
    {
      "inputs": [
        {
          "internalType": "address",
          "name": "_token",
          "type": "address"
        }
      ],
      "name": "setERC721",
      "outputs": [],
      "stateMutability": "nonpayable",
      "type": "function"
    }
  ],
  "transactionHash": "0x65332a380e0b33e74bee3cdd7bee736c2112f1b968cd2c5c74b0f3d44ec0f63c",
  "args": [],
  "numDeployments": 3,
  "solcInputHash": "c8d9aff72b6fc622ffca19606919ac89",
  "bytecode": "0x608060405234801561001057600080fd5b5061059c806100206000396000f3fe608060405234801561001057600080fd5b50600436106100415760003560e01c8063094144a5146100465780634ed6a5f71461006e578063a564725e14610124575b600080fd5b61006c6004803603602081101561005c57600080fd5b50356001600160a01b0316610148565b005b61006c6004803603604081101561008457600080fd5b6001600160a01b0382351691908101906040810160208201356401000000008111156100af57600080fd5b8201836020820111156100c157600080fd5b803590602001918460018302840111640100000000831117156100e357600080fd5b91908080601f0160208091040260200160405190810160405280939291908181526020018383808284376000920191909152509295506102a3945050505050565b61012c610499565b604080516001600160a01b039092168252519081900360200190f35b6101506104b5565b6001600160a01b0316610161610502565b6001600160a01b0316146101a8576040805162461bcd60e51b81526020600482015260096024820152682727aa2fa7aba722a960b91b604482015290519081900360640190fd5b60006101b261051e565b600101546001600160a01b0316146101fa576040805162461bcd60e51b815260206004808301919091526024820152631253925560e21b604482015290519081900360640190fd5b6001600160a01b03811661023e576040805162461bcd60e51b815260206004808301919091526024820152635a45524f60e01b604482015290519081900360640190fd5b8061024761051e565b60010180546001600160a01b0319166001600160a01b039283161790556040805160008152918316602083015280517f3db8102bd046fb2f8e030407053e10a5e46086599431cd021bf40b4e0c0a7eda9281900390910190a150565b6102ab6104b5565b6001600160a01b03166102bc610502565b6001600160a01b031614610303576040805162461bcd60e51b81526020600482015260096024820152682727aa2fa7aba722a960b91b604482015290519081900360640190fd5b600061030d61051e565b600101546001600160a01b03161415610358576040805162461bcd60e51b81526020600482015260086024820152672727afaa27a5a2a760c11b604482015290519081900360640190fd5b600061036261051e565b600101546040805163d0def52160e01b81526001600160a01b038681166004830190815260248301938452865160448401528651919094169450600093859363d0def521938993899392916064019060208501908083838c5b838110156103d35781810151838201526020016103bb565b50505050905090810190601f1680156104005780820380516001836020036101000a031916815260200191505b509350505050602060405180830381600087803b15801561042057600080fd5b505af1158015610434573d6000803e3d6000fd5b505050506040513d602081101561044a57600080fd5b5051604080516001600160a01b03871681526020810183905281519293507f1292a1381d69fd0f033102672143fff68d426b4b73eb1fa4df2620aeed9a2994929081900390910190a150505050565b60006104a361051e565b600101546001600160a01b0316905090565b600060606000368080601f0160208091040260200160405190810160405280939291908181526020018383808284376000920191909152505050503601516001600160a01b031692915050565b600061050c610542565b600401546001600160a01b0316919050565b7fbbb1a415c9434aaa59f8a4a7dd6b08573a32bbb890de71010d2200fe24a3939490565b7fc8fcad8db84d3cc18b4c41d551ea0ee66dd599cde068d998e57d5e09332c131c9056fea2646970667358221220a9722f294f3ba19720bcdbb6872e11c7c572514ac0c59b124f7207fcf62d854d64736f6c63430007040033",
  "devdoc": {
    "kind": "dev",
    "methods": {
      "getERC721()": {
        "returns": {
          "_0": "address of the ERC721 contract used in the asset pool."
        }
      },
      "mintFor(address,string)": {
        "params": {
          "_recipient": "Address of recipient for this token",
          "_tokenUri": "URI of the token"
        }
      },
      "setERC721(address)": {
        "details": "Can only be set once.",
        "params": {
          "_token": "Address of the ERC721 contract to connect to this pool."
        }
      }
    },
    "version": 1
  },
  "userdoc": {
    "kind": "user",
    "methods": {},
    "version": 1
  },
  "storageLayout": {
    "storage": [],
    "types": null
  }
}