{
  "address": "0xEAB9a65eB0F098f822033192802B53EE159De5F0",
  "abi": [
    {
      "anonymous": false,
      "inputs": [
        {
          "indexed": false,
          "internalType": "address",
          "name": "assetPool",
          "type": "address"
        }
      ],
      "name": "AssetPoolDeployed",
      "type": "event"
    },
    {
      "inputs": [],
      "name": "deployAssetPool",
      "outputs": [],
      "stateMutability": "nonpayable",
      "type": "function"
    },
    {
      "inputs": [
        {
          "components": [
            {
              "internalType": "address",
              "name": "facetAddress",
              "type": "address"
            },
            {
              "internalType": "enum IDiamondCut.FacetCutAction",
              "name": "action",
              "type": "uint8"
            },
            {
              "internalType": "bytes4[]",
              "name": "functionSelectors",
              "type": "bytes4[]"
            }
          ],
          "internalType": "struct IDiamondCut.FacetCut[]",
          "name": "_facets",
          "type": "tuple[]"
        }
      ],
      "name": "initialize",
      "outputs": [],
      "stateMutability": "nonpayable",
      "type": "function"
    },
    {
      "inputs": [
        {
          "internalType": "address",
          "name": "_controller",
          "type": "address"
        }
      ],
      "name": "setDefaultController",
      "outputs": [],
      "stateMutability": "nonpayable",
      "type": "function"
    }
  ],
  "transactionHash": "0xad7e5ac11a0638cce5cc60059ab1f17c468c60d4bd2a58f8076cfe70a1244092",
  "args": [],
  "numDeployments": 1,
  "solcInputHash": "1c7afd07ed325aa42a0d0ad39a74dde2",
  "bytecode": "0x608060405234801561001057600080fd5b50612cc6806100206000396000f3fe60806040523480156200001157600080fd5b5060043610620000465760003560e01c806355196bd9146200004b578063b7c483d31462000064578063f9c8a524146200007b575b600080fd5b620000626200005c366004620005f1565b62000085565b005b620000626200007536600462000615565b620000bb565b62000062620001af565b6200008f62000364565b806200009a620003a7565b80546001600160a01b0319166001600160a01b039290921691909117905550565b620000c562000364565b6000620000d1620003a7565b80546001600160a01b031916331781559050620000f3600382016000620003ef565b60005b8251811015620001aa57816003018382815181106200011157fe5b60209081029190910181015182546001810184556000938452928290208151600294850290910180546001600160a01b0319166001600160a01b03909216919091178082559282015191939092839160ff60a01b1990911690600160a01b9084908111156200017c57fe5b0217905550604082015180516200019e91600184019160209091019062000415565b505050600101620000f6565b505050565b620001b962000364565b6000620001c5620003a7565b905060008160030130604051620001dc90620004c8565b620001e99291906200074b565b604051809103906000f08015801562000206573d6000803e3d6000fd5b50825460405163f2fde38b60e01b815291925082916001600160a01b038084169263f2fde38b926200023f929091169060040162000737565b600060405180830381600087803b1580156200025a57600080fd5b505af11580156200026f573d6000803e3d6000fd5b505084546040516354208a2f60e01b81526001600160a01b0380861694506354208a2f9350620002a492169060040162000737565b600060405180830381600087803b158015620002bf57600080fd5b505af1158015620002d4573d6000803e3d6000fd5b505050506001838101805480830182556000918252602080832090910180546001600160a01b0319166001600160a01b0387169081179091558252600286019052604090819020805460ff1916909217909155517fd4751d882ce3a4eab04fc8d1b33792536e48979816123dd418de92d5e67895d7906200035790849062000737565b60405180910390a1505050565b6200036e620003cb565b600401546001600160a01b03163314620003a55760405162461bcd60e51b81526004016200039c9062000a29565b60405180910390fd5b565b7f45817ba6b30d8ede47e03b406ff166d55a47263294241efd9c0dcf683d919a4c90565b7fc8fcad8db84d3cc18b4c41d551ea0ee66dd599cde068d998e57d5e09332c131c90565b5080546000825560020290600052602060002090810190620004129190620004d6565b50565b82805482825590600052602060002090600701600890048101928215620004b65791602002820160005b838211156200048257835183826101000a81548163ffffffff021916908360e01c021790555092602001926004016020816003010492830192600103026200043f565b8015620004b45782816101000a81549063ffffffff021916905560040160208160030104928301926001030262000482565b505b50620004c492915062000508565b5090565b6121cc8062000ac583390190565b80821115620004c45780546001600160a81b03191681556000620004fe60018301826200051f565b50600201620004d6565b5b80821115620004c4576000815560010162000509565b50805460008255600701600890049060005260206000209081019062000412919062000508565b80356001600160a01b03811681146200055e57600080fd5b919050565b600082601f83011262000574578081fd5b81356200058b620005858262000a90565b62000a6b565b818152915060208083019084810181840286018201871015620005ad57600080fd5b6000805b85811015620005e55782356001600160e01b031981168114620005d2578283fd5b85529383019391830191600101620005b1565b50505050505092915050565b60006020828403121562000603578081fd5b6200060e8262000546565b9392505050565b6000602080838503121562000628578182fd5b823567ffffffffffffffff8082111562000640578384fd5b818501915085601f83011262000654578384fd5b813562000665620005858262000a90565b81815284810190848601875b848110156200070d5781358701606080601f19838f0301121562000693578a8bfd5b604080518281018181108b82111715620006a957fe5b8252620006b8848d0162000546565b81528184013560038110620006cb578d8efd5b818d0152918301359189831115620006e1578c8dfd5b620006f18f8d8587010162000563565b9181019190915286525050928701929087019060010162000671565b50909998505050505050505050565b6001600160a01b03169052565b6001600160e01b0319169052565b6001600160a01b0391909116815260200190565b60006040825260408201845480825260608401915060206060818302860101878552818520855b8481101562000a0b57878303605f1901865281546001600160a01b0381168452606084019060a01c60ff1660038110620007a857fe5b8486015260606040850152600183810180548390620007c8818362000abb565b9150620007d58362000aaf565b94508b92505b80600784011015620008a3578454620007f8838260e01b62000729565b6001600160e01b031962000815848c0160c084901b831662000729565b6200082960408501828460a01b1662000729565b6200083d60608501828460801b1662000729565b6200085160808501828460601b1662000729565b6200086560a08501828460401b1662000729565b6200087860c0850182848e1b1662000729565b6200088960e0850182841662000729565b5050610100820191508385019450600883019250620007db565b93549380831015620008c757620008be828660e01b62000729565b91830191908801905b80831015620008f357620008ea8260c087901b6001600160e01b03191662000729565b91830191908801905b808310156200091f57620009168260a087901b6001600160e01b03191662000729565b91830191908801905b808310156200094b576200094282608087901b6001600160e01b03191662000729565b91830191908801905b8083101562000977576200096e82606087901b6001600160e01b03191662000729565b91830191908801905b80831015620009a3576200099a82604087901b6001600160e01b03191662000729565b91830191908801905b80831015620009cd57620009c482868b1b6001600160e01b03191662000729565b91830191908801905b80831015620009f157620009ec826001600160e01b0319871662000729565b908801905b509887019895505050600292909201915060010162000772565b50508094505062000a1f818601876200071c565b5050509392505050565b60208082526022908201527f4c69624469616d6f6e643a204d75737420626520636f6e7472616374206f776e60408201526132b960f11b606082015260800190565b60405181810167ffffffffffffffff8111828210171562000a8857fe5b604052919050565b600067ffffffffffffffff82111562000aa557fe5b5060209081020190565b60009081526020902090565b9081526020019056fe6080604052604051620021cc380380620021cc833981016040819052620000269162000a0e565b604080516000808252602082019092526200004e918491620000f160201b620000be1760201c565b62000064816200023860201b620001ef1760201c565b60006200007b6200029a60201b6200024f1760201c565b6301ffc9a760e01b600090815260039091016020526040808220805460ff1990811660019081179092556307e4c70760e21b845282842080548216831790556348e2b09360e01b845282842080548216831790556307f5828d60e41b845291909220805490911690911790555062001178915050565b6000620000fd6200029a565b600281015490915061ffff16806000806008830611156200012f57506008810460009081526001840160205260409020545b60005b8751811015620001a7576200019983838a84815181106200014f57fe5b6020026020010151600001518b85815181106200016857fe5b6020026020010151602001518c86815181106200018157fe5b602002602001015160400151620002be60201b60201c565b909350915060010162000132565b50828214620001c45760028401805461ffff191661ffff84161790555b6007821615620001e65760088204600090815260018501602052604090208190555b7f8faa70878671ccd212d20771b795c50af8fd3ff6cf27f4bde57e5d4de0aeb6738787876040516200021b9392919062000b81565b60405180910390a16200022f8686620007fe565b50505050505050565b6000620002446200029a565b6004810180546001600160a01b038581166001600160a01b031983168117909355604051939450169182907f8be0079c531659141344cd1fd0a4f28419497f9722a3daafe3b4186f6b6457e090600090a3505050565b7fc8fcad8db84d3cc18b4c41d551ea0ee66dd599cde068d998e57d5e09332c131c90565b60008080620002cc6200029a565b90506000845111620002fb5760405162461bcd60e51b8152600401620002f29062000d30565b60405180910390fd5b60008560028111156200030a57fe5b141562000443576001600160a01b0386166200033a5760405162461bcd60e51b8152600401620002f29062000e1f565b6200035f8660405180606001604052806024815260200162002158602491396200093f565b60005b84518110156200043c5760008582815181106200037b57fe5b6020908102919091018101516001600160e01b03198116600090815291859052604090912054909150606081901c15620003c95760405162461bcd60e51b8152600401620002f29062000f66565b6001600160e01b03198281166000818152602087815260409091206001600160601b031960608e901b168f17905560078e160290811c91811c199b909b16179960e08114156200042c5760088c04600090815260018601602052604081209b909b555b5050506001988901980162000362565b50620007f2565b60018560028111156200045257fe5b1415620005b4576001600160a01b038616620004825760405162461bcd60e51b8152600401620002f29062000e6b565b620004a786604051806060016040528060288152602001620021a4602891396200093f565b60005b84518110156200043c576000858281518110620004c357fe5b6020908102919091018101516001600160e01b03198116600090815291859052604090912054909150606081901c30811415620005145760405162461bcd60e51b8152600401620002f2906200106c565b896001600160a01b0316816001600160a01b03161415620005495760405162461bcd60e51b8152600401620002f29062000fc3565b6001600160a01b038116620005725760405162461bcd60e51b8152600401620002f290620010bb565b506001600160e01b031990911660009081526020849052604090206001600160601b03919091166001600160601b031960608a901b16179055600101620004aa565b6002856002811115620005c357fe5b1415620007d8576001600160a01b03861615620005f45760405162461bcd60e51b8152600401620002f2906200100f565b6008880460001960078a160160005b8651811015620007c6578962000632576000199092016000818152600185016020526040902054995091600791505b6000806000808a85815181106200064557fe5b6020908102919091018101516001600160e01b031981166000908152918a9052604090912054909150606081901c620006925760405162461bcd60e51b8152600401620002f29062000d7b565b606081901c301415620006b95760405162461bcd60e51b8152600401620002f29062000f18565b602087028f901b94506001600160e01b0319808616908316146200070a576001600160e01b03198516600090815260208a90526040902080546001600160601b0319166001600160601b0383161790555b6001600160e01b03198216600090815260208a9052604081205561ffff811660088104945060088106602002935050505085821462000773576000828152600188016020526040902080546001600160e01b031980841c19909116908516831c17905562000797565b80836001600160e01b031916901c816001600160e01b031960001b901c198e16179c505b84620007b357600086815260018801602052604081208190559c505b5050600019909201915060010162000603565b506001600890920201019750620007f2565b60405162461bcd60e51b8152600401620002f29062000dd8565b50959694955050505050565b6001600160a01b03821662000835578051156200082f5760405162461bcd60e51b8152600401620002f29062000c8d565b6200093b565b6000815111620008595760405162461bcd60e51b8152600401620002f29062000ebb565b6001600160a01b03821630146200088f576200088f826040518060600160405280602881526020016200217c602891396200093f565b60006060836001600160a01b031683604051620008ad919062000b63565b600060405180830381855af49150503d8060008114620008ea576040519150601f19603f3d011682016040523d82523d6000602084013e620008ef565b606091505b50915091508162000938578051156200091e578060405162461bcd60e51b8152600401620002f2919062000c71565b60405162461bcd60e51b8152600401620002f29062000cea565b50505b5050565b813b8181620009385760405162461bcd60e51b8152600401620002f2919062000c71565b80516001600160a01b03811681146200097b57600080fd5b919050565b600082601f83011262000991578081fd5b8151620009a8620009a2826200112b565b62001107565b818152915060208083019084810181840286018201871015620009ca57600080fd5b6000805b8581101562000a025782516001600160e01b031981168114620009ef578283fd5b85529383019391830191600101620009ce565b50505050505092915050565b6000806040838503121562000a21578182fd5b82516001600160401b038082111562000a38578384fd5b818501915085601f83011262000a4c578384fd5b815162000a5d620009a2826200112b565b81815260208082019190858101885b8581101562000b0757815188016060818e03601f1901121562000a8d578a8bfd5b604051606081018181108a8211171562000aa357fe5b60405262000ab382860162000963565b815260408201516003811062000ac7578c8dfd5b8186015260608201518981111562000add578c8dfd5b62000aed8f878386010162000980565b604083015250865250938201939082019060010162000a6c565b505081975062000b19818a0162000963565b96505050505050509250929050565b6001600160a01b03169052565b6000815180845262000b4f81602086016020860162001149565b601f01601f19169290920160200192915050565b6000825162000b7781846020870162001149565b9190910192915050565b606080825284518282018190526000919060809081850190602080820287018401818b01875b8481101562000c3e57898303607f19018652815180516001600160a01b0316845284810151898501906003811062000bdb57fe5b858701526040918201519185018a9052815190819052908501908a90898601905b8083101562000c285783516001600160e01b031916825292870192600192909201919087019062000bfc565b5097860197945050509083019060010162000ba7565b505062000c4e8289018b62000b28565b878103604089015262000c62818a62000b35565b9b9a5050505050505050505050565b60006020825262000c86602083018462000b35565b9392505050565b6020808252603c908201527f4c69624469616d6f6e644375743a205f696e697420697320616464726573732860408201527f3029206275745f63616c6c64617461206973206e6f7420656d70747900000000606082015260800190565b60208082526026908201527f4c69624469616d6f6e644375743a205f696e69742066756e6374696f6e2072656040820152651d995c9d195960d21b606082015260800190565b6020808252602b908201527f4c69624469616d6f6e644375743a204e6f2073656c6563746f727320696e206660408201526a1858d95d081d1bc818dd5d60aa1b606082015260800190565b60208082526037908201527f4c69624469616d6f6e644375743a2043616e27742072656d6f76652066756e6360408201527f74696f6e207468617420646f65736e2774206578697374000000000000000000606082015260800190565b60208082526027908201527f4c69624469616d6f6e644375743a20496e636f727265637420466163657443756040820152663a20b1ba34b7b760c91b606082015260800190565b6020808252602c908201527f4c69624469616d6f6e644375743a204164642066616365742063616e2774206260408201526b65206164647265737328302960a01b606082015260800190565b60208082526030908201527f4c69624469616d6f6e644375743a205265706c6163652066616365742063616e60408201526f2774206265206164647265737328302960801b606082015260800190565b6020808252603d908201527f4c69624469616d6f6e644375743a205f63616c6c6461746120697320656d707460408201527f7920627574205f696e6974206973206e6f742061646472657373283029000000606082015260800190565b6020808252602e908201527f4c69624469616d6f6e644375743a2043616e27742072656d6f766520696d6d7560408201526d3a30b1363290333ab731ba34b7b760911b606082015260800190565b60208082526035908201527f4c69624469616d6f6e644375743a2043616e2774206164642066756e6374696f60408201527f6e207468617420616c7265616479206578697374730000000000000000000000606082015260800190565b60208082526038908201526000805160206200213883398151915260408201527f6374696f6e20776974682073616d652066756e6374696f6e0000000000000000606082015260800190565b60208082526036908201527f4c69624469616d6f6e644375743a2052656d6f7665206661636574206164647260408201527f657373206d757374206265206164647265737328302900000000000000000000606082015260800190565b6020808252602f908201527f4c69624469616d6f6e644375743a2043616e2774207265706c61636520696d6d60408201526e3aba30b1363290333ab731ba34b7b760891b606082015260800190565b60208082526038908201526000805160206200213883398151915260408201527f6374696f6e207468617420646f65736e27742065786973740000000000000000606082015260800190565b6040518181016001600160401b03811182821017156200112357fe5b604052919050565b60006001600160401b038211156200113f57fe5b5060209081020190565b60005b83811015620011665781810151838201526020016200114c565b83811115620009385750506000910152565b610fb080620011886000396000f3fe60806040523661000b57005b600080356001600160e01b03191681527fc8fcad8db84d3cc18b4c41d551ea0ee66dd599cde068d998e57d5e09332c131c6020819052604090912054819060601c806100725760405162461bcd60e51b815260040161006990610c46565b60405180910390fd5b36600080373033141561009e57600080366000845af43d6000803e808015610099573d6000f35b3d6000fd5b333652600080602036016000845af43d6000803e808015610099573d6000f35b60006100c861024f565b600281015490915061ffff16806000806008830611156100f957506008810460009081526001840160205260409020545b60005b87518110156101645761015783838a848151811061011657fe5b6020026020010151600001518b858151811061012e57fe5b6020026020010151602001518c868151811061014657fe5b602002602001015160400151610273565b90935091506001016100fc565b508282146101805760028401805461ffff191661ffff84161790555b60078216156101a15760088204600090815260018501602052604090208190555b7f8faa70878671ccd212d20771b795c50af8fd3ff6cf27f4bde57e5d4de0aeb6738787876040516101d493929190610917565b60405180910390a16101e68686610776565b50505050505050565b60006101f961024f565b6004810180546001600160a01b038581166001600160a01b031983168117909355604051939450169182907f8be0079c531659141344cd1fd0a4f28419497f9722a3daafe3b4186f6b6457e090600090a3505050565b7fc8fcad8db84d3cc18b4c41d551ea0ee66dd599cde068d998e57d5e09332c131c90565b600080600061028061024f565b905060008451116102a35760405162461bcd60e51b815260040161006990610abb565b60008560028111156102b157fe5b14156103db576001600160a01b0386166102dd5760405162461bcd60e51b815260040161006990610baa565b6102ff86604051806060016040528060248152602001610f07602491396108a1565b60005b84518110156103d557600085828151811061031957fe5b6020908102919091018101516001600160e01b03198116600090815291859052604090912054909150606081901c156103645760405162461bcd60e51b815260040161006990610d26565b6001600160e01b03198281166000818152602087815260409091206001600160601b031960608e901b168f17905560078e160290811c91811c199b909b16179960e08114156103c65760088c04600090815260018601602052604081209b909b555b50505060019889019801610302565b5061076a565b60018560028111156103e957fe5b141561053d576001600160a01b0386166104155760405162461bcd60e51b815260040161006990610bf6565b61043786604051806060016040528060288152602001610f53602891396108a1565b60005b84518110156103d557600085828151811061045157fe5b6020908102919091018101516001600160e01b03198116600090815291859052604090912054909150606081901c3081141561049f5760405162461bcd60e51b815260040161006990610e2e565b896001600160a01b0316816001600160a01b031614156104d15760405162461bcd60e51b815260040161006990610d7b565b6001600160a01b0381166104f75760405162461bcd60e51b815260040161006990610e7d565b506001600160e01b031990911660009081526020849052604090206bffffffffffffffffffffffff919091166001600160601b031960608a901b1617905560010161043a565b600285600281111561054b57fe5b1415610752576001600160a01b038616156105785760405162461bcd60e51b815260040161006990610dd8565b6008880460001960078a160160005b865181101561074157896105b4576000199092016000818152600185016020526040902054995091600791505b6000806000808a85815181106105c657fe5b6020908102919091018101516001600160e01b031981166000908152918a9052604090912054909150606081901c6106105760405162461bcd60e51b815260040161006990610b06565b606081901c3014156106345760405162461bcd60e51b815260040161006990610cd8565b602087028f901b94506001600160e01b031980861690831614610689576001600160e01b03198516600090815260208a90526040902080546001600160601b0319166bffffffffffffffffffffffff83161790555b6001600160e01b03198216600090815260208a9052604081205561ffff81166008810494506008810660200293505050508582146106f0576000828152600188016020526040902080546001600160e01b031980841c19909116908516831c179055610714565b80836001600160e01b031916901c816001600160e01b031960001b901c198e16179c505b8461072f57600086815260018801602052604081208190559c505b50506000199092019150600101610587565b50600160089092020101975061076a565b60405162461bcd60e51b815260040161006990610b63565b50959694955050505050565b6001600160a01b0382166107a8578051156107a35760405162461bcd60e51b815260040161006990610a18565b61089d565b60008151116107c95760405162461bcd60e51b815260040161006990610c7b565b6001600160a01b03821630146107fb576107fb82604051806060016040528060288152602001610f2b602891396108a1565b60006060836001600160a01b03168360405161081791906108fb565b600060405180830381855af49150503d8060008114610852576040519150601f19603f3d011682016040523d82523d6000602084013e610857565b606091505b50915091508161089a57805115610882578060405162461bcd60e51b815260040161006991906109fe565b60405162461bcd60e51b815260040161006990610a75565b50505b5050565b813b818161089a5760405162461bcd60e51b815260040161006991906109fe565b6001600160a01b03169052565b600081518084526108e7816020860160208601610eda565b601f01601f19169290920160200192915050565b6000825161090d818460208701610eda565b9190910192915050565b606080825284518282018190526000919060809081850190602080820287018401818b01875b848110156109cf57898303607f19018652815180516001600160a01b0316845284810151898501906003811061096f57fe5b858701526040918201519185018a9052815190819052908501908a90898601905b808310156109ba5783516001600160e01b0319168252928701926001929092019190870190610990565b5097860197945050509083019060010161093d565b50506109dd8289018b6108c2565b87810360408901526109ef818a6108cf565b9b9a5050505050505050505050565b600060208252610a1160208301846108cf565b9392505050565b6020808252603c908201527f4c69624469616d6f6e644375743a205f696e697420697320616464726573732860408201527f3029206275745f63616c6c64617461206973206e6f7420656d70747900000000606082015260800190565b60208082526026908201527f4c69624469616d6f6e644375743a205f696e69742066756e6374696f6e2072656040820152651d995c9d195960d21b606082015260800190565b6020808252602b908201527f4c69624469616d6f6e644375743a204e6f2073656c6563746f727320696e206660408201526a1858d95d081d1bc818dd5d60aa1b606082015260800190565b60208082526037908201527f4c69624469616d6f6e644375743a2043616e27742072656d6f76652066756e6360408201527f74696f6e207468617420646f65736e2774206578697374000000000000000000606082015260800190565b60208082526027908201527f4c69624469616d6f6e644375743a20496e636f727265637420466163657443756040820152663a20b1ba34b7b760c91b606082015260800190565b6020808252602c908201527f4c69624469616d6f6e644375743a204164642066616365742063616e2774206260408201526b65206164647265737328302960a01b606082015260800190565b60208082526030908201527f4c69624469616d6f6e644375743a205265706c6163652066616365742063616e60408201526f2774206265206164647265737328302960801b606082015260800190565b6020808252818101527f4469616d6f6e643a2046756e6374696f6e20646f6573206e6f74206578697374604082015260600190565b6020808252603d908201527f4c69624469616d6f6e644375743a205f63616c6c6461746120697320656d707460408201527f7920627574205f696e6974206973206e6f742061646472657373283029000000606082015260800190565b6020808252602e908201527f4c69624469616d6f6e644375743a2043616e27742072656d6f766520696d6d7560408201526d3a30b1363290333ab731ba34b7b760911b606082015260800190565b60208082526035908201527f4c69624469616d6f6e644375743a2043616e2774206164642066756e6374696f6040820152746e207468617420616c72656164792065786973747360581b606082015260800190565b60208082526038908201527f4c69624469616d6f6e644375743a2043616e2774207265706c6163652066756e60408201527f6374696f6e20776974682073616d652066756e6374696f6e0000000000000000606082015260800190565b60208082526036908201527f4c69624469616d6f6e644375743a2052656d6f76652066616365742061646472604082015275657373206d757374206265206164647265737328302960501b606082015260800190565b6020808252602f908201527f4c69624469616d6f6e644375743a2043616e2774207265706c61636520696d6d60408201526e3aba30b1363290333ab731ba34b7b760891b606082015260800190565b60208082526038908201527f4c69624469616d6f6e644375743a2043616e2774207265706c6163652066756e60408201527f6374696f6e207468617420646f65736e27742065786973740000000000000000606082015260800190565b60005b83811015610ef5578181015183820152602001610edd565b8381111561089a575050600091015256fe4c69624469616d6f6e644375743a2041646420666163657420686173206e6f20636f64654c69624469616d6f6e644375743a205f696e6974206164647265737320686173206e6f20636f64654c69624469616d6f6e644375743a205265706c61636520666163657420686173206e6f20636f6465a2646970667358221220eb5a59df46dbb9238f343b97b26772889800fda705718d555e09c6aef95a309664736f6c634300070400334c69624469616d6f6e644375743a2043616e2774207265706c6163652066756e4c69624469616d6f6e644375743a2041646420666163657420686173206e6f20636f64654c69624469616d6f6e644375743a205f696e6974206164647265737320686173206e6f20636f64654c69624469616d6f6e644375743a205265706c61636520666163657420686173206e6f20636f6465a2646970667358221220d4f09ee2375428ac0ebdf936a7d00ebb78cde5db01b7e7272502a0d61f0cebf864736f6c63430007040033",
  "devdoc": {
    "kind": "dev",
    "methods": {
      "deployAssetPool()": {
        "details": "Transfers ownership to the controller and initializes access control."
      },
      "initialize((address,uint8,bytes4[])[])": {
        "params": {
          "_facets": "Default Asset Pool facets for the factory diamond to deploy."
        }
      },
      "setDefaultController(address)": {
        "params": {
          "_controller": "Address of the diamond controller."
        }
      }
    },
    "version": 1
  },
  "userdoc": {
    "kind": "user",
    "methods": {
      "deployAssetPool()": {
        "notice": "Deploys and stores the reference to an asset pool based on the current defaultCut."
      },
      "initialize((address,uint8,bytes4[])[])": {
        "notice": "Initializes the factory with a default diamond cut."
      },
      "setDefaultController(address)": {
        "notice": "Sets the controller for the factory diamond."
      }
    },
    "version": 1
  },
  "storageLayout": {
    "storage": [],
    "types": null
  }
}