{
  "address": "0x278Ff6d33826D906070eE938CDc9788003749e93",
  "abi": [
    {
      "inputs": [
        {
          "internalType": "address",
          "name": "_feeCollector",
          "type": "address"
        },
        {
          "internalType": "uint256",
          "name": "_feePercentage",
          "type": "uint256"
        }
      ],
      "stateMutability": "nonpayable",
      "type": "constructor"
    },
    {
      "anonymous": false,
      "inputs": [
        {
          "indexed": true,
          "internalType": "address",
          "name": "previousOwner",
          "type": "address"
        },
        {
          "indexed": true,
          "internalType": "address",
          "name": "newOwner",
          "type": "address"
        }
      ],
      "name": "OwnershipTransferred",
      "type": "event"
    },
    {
      "inputs": [],
      "name": "feeCollector",
      "outputs": [
        {
          "internalType": "address",
          "name": "",
          "type": "address"
        }
      ],
      "stateMutability": "view",
      "type": "function"
    },
    {
      "inputs": [],
      "name": "feePercentage",
      "outputs": [
        {
          "internalType": "uint256",
          "name": "",
          "type": "uint256"
        }
      ],
      "stateMutability": "view",
      "type": "function"
    },
    {
      "inputs": [],
      "name": "owner",
      "outputs": [
        {
          "internalType": "address",
          "name": "",
          "type": "address"
        }
      ],
      "stateMutability": "view",
      "type": "function"
    },
    {
      "inputs": [],
      "name": "renounceOwnership",
      "outputs": [],
      "stateMutability": "nonpayable",
      "type": "function"
    },
    {
      "inputs": [
        {
          "internalType": "address",
          "name": "_feeCollector",
          "type": "address"
        }
      ],
      "name": "setFeeCollector",
      "outputs": [],
      "stateMutability": "nonpayable",
      "type": "function"
    },
    {
      "inputs": [
        {
          "internalType": "uint256",
          "name": "_feePercentage",
          "type": "uint256"
        }
      ],
      "name": "setFeePercentage",
      "outputs": [],
      "stateMutability": "nonpayable",
      "type": "function"
    },
    {
      "inputs": [
        {
          "internalType": "address",
          "name": "newOwner",
          "type": "address"
        }
      ],
      "name": "transferOwnership",
      "outputs": [],
      "stateMutability": "nonpayable",
      "type": "function"
    }
  ],
  "transactionHash": "0xeda8603c12342111e6bac44543fcfacf9cbc947921fa78168244c0f946ce1fc0",
  "args": [
    "0x960911a62FdDf7BA84D0d3aD016EF7D15966F7Dc",
    0
  ],
  "numDeployments": 1,
  "solcInputHash": "1c7afd07ed325aa42a0d0ad39a74dde2",
  "bytecode": "0x608060405234801561001057600080fd5b5060405161056f38038061056f83398101604081905261002f916100b0565b60006100396100ac565b600080546001600160a01b0319166001600160a01b0383169081178255604051929350917f8be0079c531659141344cd1fd0a4f28419497f9722a3daafe3b4186f6b6457e0908290a350600180546001600160a01b0319166001600160a01b0393909316929092179091556002556100e8565b3390565b600080604083850312156100c2578182fd5b82516001600160a01b03811681146100d8578283fd5b6020939093015192949293505050565b610478806100f76000396000f3fe608060405234801561001057600080fd5b506004361061007d5760003560e01c8063a42dce801161005b578063a42dce80146100bf578063ae06c1b7146100d2578063c415b95c146100e5578063f2fde38b146100ed5761007d565b8063715018a6146100825780638da5cb5b1461008c578063a001ecdd146100aa575b600080fd5b61008a610100565b005b6100946101a2565b6040516100a191906103df565b60405180910390f35b6100b26101b1565b6040516100a191906103f3565b61008a6100cd366004610399565b6101b7565b61008a6100e03660046103c7565b610231565b61009461028e565b61008a6100fb366004610399565b61029d565b610108610395565b6000546001600160a01b03908116911614610158576040805162461bcd60e51b81526020600482018190526024820152600080516020610423833981519152604482015290519081900360640190fd5b600080546040516001600160a01b03909116907f8be0079c531659141344cd1fd0a4f28419497f9722a3daafe3b4186f6b6457e0908390a3600080546001600160a01b0319169055565b6000546001600160a01b031690565b60025481565b6101bf610395565b6000546001600160a01b0390811691161461020f576040805162461bcd60e51b81526020600482018190526024820152600080516020610423833981519152604482015290519081900360640190fd5b600180546001600160a01b0319166001600160a01b0392909216919091179055565b610239610395565b6000546001600160a01b03908116911614610289576040805162461bcd60e51b81526020600482018190526024820152600080516020610423833981519152604482015290519081900360640190fd5b600255565b6001546001600160a01b031681565b6102a5610395565b6000546001600160a01b039081169116146102f5576040805162461bcd60e51b81526020600482018190526024820152600080516020610423833981519152604482015290519081900360640190fd5b6001600160a01b03811661033a5760405162461bcd60e51b81526004018080602001828103825260268152602001806103fd6026913960400191505060405180910390fd5b600080546040516001600160a01b03808516939216917f8be0079c531659141344cd1fd0a4f28419497f9722a3daafe3b4186f6b6457e091a3600080546001600160a01b0319166001600160a01b0392909216919091179055565b3390565b6000602082840312156103aa578081fd5b81356001600160a01b03811681146103c0578182fd5b9392505050565b6000602082840312156103d8578081fd5b5035919050565b6001600160a01b0391909116815260200190565b9081526020019056fe4f776e61626c653a206e6577206f776e657220697320746865207a65726f20616464726573734f776e61626c653a2063616c6c6572206973206e6f7420746865206f776e6572a2646970667358221220b0928dfa342b75ab7b83d774108117fb1c3a957abb604e817bb5d59675afb2ab64736f6c63430007040033",
  "devdoc": {
    "kind": "dev",
    "methods": {
      "constructor": {
        "params": {
          "_feeCollector": "Integer representing the deposit fee percentage."
        }
      },
      "owner()": {
        "details": "Returns the address of the current owner."
      },
      "renounceOwnership()": {
        "details": "Leaves the contract without owner. It will not be possible to call `onlyOwner` functions anymore. Can only be called by the current owner. NOTE: Renouncing ownership will leave the contract without an owner, thereby removing any functionality that is only available to the owner."
      },
      "setFeeCollector(address)": {
        "params": {
          "_feeCollector": "Address of the FeeCollector contract."
        }
      },
      "setFeePercentage(uint256)": {
        "params": {
          "_feePercentage": "0 - 100 value used for substracting fees from deposits into an asset pool."
        }
      },
      "transferOwnership(address)": {
        "details": "Transfers ownership of the contract to a new account (`newOwner`). Can only be called by the current owner."
      }
    },
    "version": 1
  },
  "userdoc": {
    "kind": "user",
    "methods": {},
    "version": 1
  },
  "storageLayout": {
    "storage": [
      {
        "astId": 30,
        "contract": "contracts/PoolRegistry.sol:PoolRegistry",
        "label": "_owner",
        "offset": 0,
        "slot": "0",
        "type": "t_address"
      },
      {
        "astId": 6022,
        "contract": "contracts/PoolRegistry.sol:PoolRegistry",
        "label": "feeCollector",
        "offset": 0,
        "slot": "1",
        "type": "t_address"
      },
      {
        "astId": 6025,
        "contract": "contracts/PoolRegistry.sol:PoolRegistry",
        "label": "feePercentage",
        "offset": 0,
        "slot": "2",
        "type": "t_uint256"
      }
    ],
    "types": {
      "t_address": {
        "encoding": "inplace",
        "label": "address",
        "numberOfBytes": "20"
      },
      "t_uint256": {
        "encoding": "inplace",
        "label": "uint256",
        "numberOfBytes": "32"
      }
    }
  }
}